:020000040800F2
:1000000058100020350200083B2200083322000867
:1000100037220008ED130008CD330008000000006F
:10002000000000000000000000000000FB2C0008A1
:10003000F51A000800000000852300084D2E000876
:100040004F0200084F0200084F0200084F0200084C
:100050004F0200084F0200084F020008311C000840
:10006000E11F00084F0200084F020008F1130008CA
:100070004F0200084F0200083D1500084F0200081B
:100080004F0200084F0200084F0200080000000065
:10009000000000000000000000000000F51F000844
:1000A0004F0200084F0200084F0200084F020008EC
:1000B0004F020008812F00084F0200084F0200087D
:1000C0004F0200084F0200084F0200084F020008CC
:1000D0004F020008C53000084F0200080000000071
:1000E0004F0200084F0200084F0200080000000005
:1000F0000000000000000000000000004F020008A7
:10010000000000004F0200084F0200084F020008E4
:1001100000000000000000000000000000000000DF
:10012000191600084F0200084F0200084F0200088D
:100130004F02000800000000000000000000000066
:100140000000000000000000000000004F02000856
:100150004F0200084F0200084F0200084F0200083B
:100160004F0200084F0200080000000000000000DD
:10017000000000000000000000000000000000007F
:10018000000000004F020008000000000000000016
:100190004F02000800F002F800F03CF80AA090E8D6
:1001A000000C82448344AAF10107DA4501D100F032
:1001B00031F8AFF2090EBAE80F0013F0010F18BFC3
:1001C000FB1A43F0010318470050000020500000C4
:1001D000103A24BF78C878C1FAD8520724BF30C873
:1001E00030C144BF04680C60704700000023002445
:1001F00000250026103A28BF78C1FBD8520728BF37
:1002000030C148BF0B6070471FB504F012FF1FBD1F
:1002100010B510BD00F0A0F91146FFF7F5FF04F08E
:100220000FF800F0BEF903B4FFF7F2FF03BC00F0D3
:10023000C1F900000948804709480047FEE7FEE78A
:10024000FEE7FEE7FEE7FEE7FEE7FEE7FEE7FEE786
:1002500004480549054A064B70470000512E000826
:1002600095010008580A002058100020580C002062
:10027000580C002010B54C1084EA530404D54042B9
:10028000C1F1000138BF491E1B4204D55242C3F1DF
:10029000000338BF5B1E00F0D4F814F0804F04D088
:1002A0004042C1F1000138BF491E14F0004F04D094
:1002B0005242C3F1000338BF5B1E10BD032A40F257
:1002C000308010F0030C00F0158011F8013BBCF1F8
:1002D000020F624498BF11F801CB00F8013B38BF10
:1002E00011F8013BA2F1040298BF00F801CB38BF1E
:1002F00000F8013B11F0030300F02580083AC0F03C
:10030000088051F8043B083A51F804CBA0E80810E3
:10031000F5E7121D5CBF51F8043B40F8043BAFF316
:100320000080D20724BF11F8013B11F801CB48BF70
:1003300011F8012B24BF00F8013B00F801CB48BFA6
:1003400000F8012B704710B5203AC0F00B80B1E8DF
:100350001850203AA0E81850B1E81850A0E81850FA
:10036000BFF4F5AF5FEA027C24BFB1E81850A0E803
:10037000185044BF18C918C0BDE810405FEA827C1D
:1003800024BF51F8043B40F8043B08BF7047D20734
:1003900028BF31F8023B48BF11F8012B28BF20F8D5
:1003A000023B48BF00F8012B70474FF000020429C0
:1003B000C0F0128010F0030C00F01B80CCF1040C94
:1003C000BCF1020F18BF00F8012BA8BF20F8022BC8
:1003D000A1EB0C0100F00DB85FEAC17C24BF00F86E
:1003E000012B00F8012B48BF00F8012B70474FF09C
:1003F000000200B5134694469646203922BFA0E875
:100400000C50A0E80C50B1F12001BFF4F7AF090780
:1004100028BFA0E80C5048BF0CC05DF804EB890071
:1004200028BF40F8042B08BF704748BF20F8022BB4
:1004300011F0804F18BF00F8012B704770477047CC
:10044000704753EA020C00F069802DE9F04B4FF041
:100450000006002B1FBFB3FA83F503FA05F424FA54
:1004600005F65E4012BF1643B2FA82F502FA05F4B1
:10047000C5F120051EBF22FA05FC44EA0C04203514
:1004800056EA044C4FEA144418BF641C4FF00008AD
:100490004FF00009904271EB030C39D3002919BFCA
:1004A000B1FA81F701FA07F6B0FA80F700FA07F619
:1004B000C7F120071EBF20FA07FC46EA0C062037CA
:1004C000B6FBF4FCA7EB0507103F07F01F0BCBF1C1
:1004D00020060CFA0BFB2CFA06F644BFB3460026A6
:1004E000202FA4BF5E464FF0000B5BEA060C08BF4E
:1004F0004FF0010B19EB0B09ABFB027C48EB060834
:10050000C01B06FB02CC0BFB03CC71EB0C01C1E75B
:100510000B46024641464846BDE8F08B13B54FF006
:1005200000004FF00001AFF30080BDE81C407047B1
:1005300010B500F009F8006810BD10B5044600F0D1
:1005400003F8046010BD000000487047F80900205F
:1005500000487047F80900207546FFF7F9FFAE46DE
:1005600005006946534620F00700854618B020B5BF
:10057000FFF76EFEBDE820404FF000064FF0000789
:100580004FF000084FF0000B21F00701AC46ACE83B
:10059000C009ACE8C009ACE8C009ACE8C0098D46A8
:1005A000704710B50446AFF300802046BDE8104008
:1005B000FFF739BE01491820ABBEFEE72600020056
:1005C0007047000010B500240221074801F02DFEFD
:1005D0004FF4924002F0FAF90446E0B28B2801D1C0
:1005E000012010BD0020FCE70004024010B500F01F
:1005F000C9FB02210D4801F018FE46F2460002F048
:10060000E5F946F2321002F0E1F946F2554002F007
:10061000DDF94FF4CA4002F0D9F90221034801F094
:1006200006FE4021014801F002FE10BD0004024018
:100630002DE9F047044689464FF0010A206BE8B1E6
:10064000D4F830C062460023D4E904713846FFF77D
:1006500011FE054604F07AFC00EE100AF0EE040AE2
:1006600020EE200ADFED3E0A20EE200A89ED000A86
:100670000020206300212161616101E04FF0000A48
:10068000606BE0B1D4F834C062460023D4E906516F
:100690002846FFF7EFFD074604F058FC00EE100A6D
:1006A000F0EE040A20EE200ADFED2D0A20EE200AEB
:1006B00089ED010A00206063A061E06101E04FF074
:1006C000000AA06BE0B1D4F838C062460023D4E938
:1006D00008512846FFF7CEFD074604F037FC00EE30
:1006E000100AF0EE040A20EE200ADFED1D0A20EECB
:1006F000200A89ED020A0020A0632062606201E006
:100700004FF0000AE06B30B3D4F83CC062460023DF
:10071000D4E90A512846FFF7ADFD074604F016FC60
:1007200000EE100AF0EE040A60EE200A9FED0C1AAB
:10073000B0EE040A00EE810AF6EE000A30EE600A1E
:10074000DFED080A20EE200A89ED030A0020E063AD
:10075000A062E06201E04FF0000A5046BDE8F08779
:10076000898808340000C84230B503460C4603F4BB
:10077000F850B0F5006F09D0B0F5206F1DD0B0F57E
:10078000406F31D0B0F5606F5CD144E0D9B204EB7A
:10079000014003F0B4FD2D4908600846D0E904513A
:1007A0000068C21728185141284AC2E904011046BE
:1007B000006B401C1146086345E0D9B204EB0140D0
:1007C00003F09DFD214948600846D0E9065049687C
:1007D000CA17691850411D4AC2E906101046406BFD
:1007E000401C114648632EE0D9B204EB014003F0EF
:1007F00086FD164988600846D0E908508968CA17FE
:1008000069185041114AC2E908101046806B401C1B
:100810001146886317E0D9B204EB014003F06FFD85
:100820000A49C8600846D0E90A50C968CA17691859
:100830005041064AC2E90A101046C06B401C1146DE
:10084000C86300E000BF00BF30BD0000F00800201A
:1008500070B50024002500261021534801F0E7FC64
:100860004FF48051514801F0E2FC4FF400414E48F2
:1008700001F0DDFC012001F0B5F910214A4801F03A
:10088000D4FC4FF48051494801F0CFFC4FF40041B3
:10089000454801F0CAFC48F2180001F049FF002069
:1008A00001F046FF48F2180002F090F8002002F034
:1008B0008DF848F2180002F0C5F9002002F0C2F9E4
:1008C0000A2001F08FF91021374801F0B0FC4FF4F5
:1008D0008051364801F0ABFC4FF40041324801F042
:1008E000A6FC012001F07EF910212F4801F09DFCAB
:1008F0004FF480512D4801F098FC4FF400412A48F4
:1009000001F093FC48F2180001F012FF04460020A9
:1009100001F00EFF054645EA0440C0F34F164FF6BE
:10092000F0703040B0F5A44F01D0002070BD48F207
:10093000180002F04BF80446002002F047F8054684
:1009400045EA0440C0F34F164FF6F0703040B0F562
:10095000A44F01D00020E9E748F2180002F072F934
:100960000446002002F06EF9054645EA0440C0F353
:100970004F160A2001F036F910210B4801F057FC00
:100980004FF48051094801F052FC4FF400410648F1
:1009900001F04DFC4FF6F0703040B0F5A44F01D09F
:1009A0000020C3E70120C1E700000240000402402C
:1009B00010B50024642001F0EFF81021494801F03F
:1009C00036FC012001F00EF91021464801F02DFC03
:1009D0004FF4005001F0ACFE032001F0A9FE0A2004
:1009E00001F000F910213F4801F021FC4FF4805143
:1009F0003D4801F01CFC012001F0F4F84FF4805157
:100A0000394801F012FC4FF4005001F0DFFF0320E1
:100A100001F0DCFF0A2001F0E5F84FF48051324884
:100A200001F005FC4FF400412E4801F000FC0120CC
:100A300001F0D8F84FF400412A4801F0F6FB4FF4DA
:100A4000005002F0FFF8032002F0FCF80A2001F049
:100A5000C9F84FF40041234801F0E9FB00BF3EE034
:100A6000322001F099F810211E4801F0DEFB4FF40E
:100A7000005001F05DFE002001F05AFE0A2001F056
:100A8000B1F81021174801F0D2FB4FF480511648FD
:100A900001F0CBFB4FF4005001F098FF002001F073
:100AA00095FF0A2001F09EF84FF480510E4801F0A6
:100AB000BEFB4FF400410B4801F0B7FB4FF4005070
:100AC00002F0C0F8002002F0BDF80A2001F08AF818
:100AD0004FF40041034801F0AAFB601CC4B2032C90
:100AE000BEDB10BD000002400004024010B5102122
:100AF000064801F09AFB4FF4005005490880002099
:100B00004880022001F022FD10BD000000000240DC
:100B10001800002010B54FF48051064801F085FB05
:100B20004FF400500449088000204880022001F062
:100B300057FE10BD000402402000002010B54FF405
:100B40000041064801F071FB4FF400500449088051
:100B500000204880022001F091FF10BD00000240FB
:100B6000280000202DE9F047044689464FF0010A8D
:100B7000206AC8B1D4F820C062460023D4E90071CD
:100B80003846FFF777FB054604F0E0F900EE100A5F
:100B9000DFED350A20EE200A89ED000A00202062F0
:100BA00000212160616001E04FF0000A606AC0B17D
:100BB000D4F824C062460023D4E902512846FFF746
:100BC00059FB074604F0C2F900EE100ADFED260AD1
:100BD00020EE200A89ED010A00206062A060E0603A
:100BE00001E04FF0000AA06AC8B1D4F828C06246FC
:100BF0000023D4E904512846FFF73CFB074604F0E4
:100C0000A5F900EE100ADFED180A20EE200A89EDA2
:100C1000020A0020A06200212161616101E04FF021
:100C2000000AE06AD8B1D4F82CC062460023D4E9A7
:100C300006512846FFF71EFB074604F087F900EE31
:100C4000100A9FED0A1ADFED0A0A40EE010AC9ED0B
:100C5000030A0020E0620021A161E16101E04FF0A0
:100C6000000A5046BDE8F087CDCC4C3CCDCC4C3E84
:100C7000000034422DE9F041014600250026002302
:100C8000002400279C46C1F38168B8F1010F3AD1D6
:100C900000BF01F0010621F0805121F00101102276
:100CA0000EE021FA02F707F00108B8F1000F03D0B7
:100CB00003F1010808F0FF0302F1010808F0FF0248
:100CC000202AEEDB00220EE021FA02FC0CF00108E3
:100CD000B8F1000F03D004F1010808F0FF0402F19D
:100CE000010808F0FF02102AEEDB04EB030808F00D
:100CF000FF0403F00108A84506D104F00108B0453F
:100D000002D1012000E00020BDE8F08170B532B1D1
:100D1000012A10D0022A1AD0032A30D123E0D1E9C7
:100D20000063351843EBE073C1E900530B6A03F12C
:100D300001030B6224E0D1E902532D1843EBE07369
:100D4000C1E902534B6A03F101034B6218E0D1E998
:100D500004532D1843EBE073C1E904538B6A03F18C
:100D600001038B620CE0D1E906532D1843EBE073CD
:100D7000C1E90653CB6A03F10103CB6200E000BF77
:100D800000BF70BD1FB50121022001F0FDFA012155
:100D9000880301F019FB00208DF804008DF807008E
:100DA000802000906946124801F0D4F90721012003
:100DB00001F0A4FF8020029000208DF80C000C2090
:100DC0008DF80D0001208DF80E0002A801F078F9D1
:100DD00001208DF804008DF807004020009069463E
:100DE000034801F0B7F94021014801F01EFA1FBD88
:100DF0000004024070B52DED028B05460C462868B4
:100E0000696841EC100B2068616853EC102B03F00B
:100E1000BFFA20606160A968084604F069F841ECF7
:100E2000180BA068E16841EC100B53EC102B51EC4F
:100E3000180B03F0ADFAA060E160E968084604F021
:100E400057F841EC180B2069616941EC100B53EC29
:100E5000102B51EC180B03F09BFA20616161A06923
:100E6000401CA061BDEC028B70BD70B504460D4600
:100E7000502000F0D7F8582801D0002070BD732012
:100E800000F0D0F800F0010008B10020F6E70920DA
:100E900000F0C8F800022080082000F0C3F8218884
:100EA000084320800B2000F0BDF8000200B26080F3
:100EB0000A2000F0B7F8B4F90210084360800D2052
:100EC00000F0B0F8000200B2A0800C2000F0AAF8F8
:100ED000B4F904100843A0800F2000F0A3F800022A
:100EE000E0800E2000F09EF8E1880843E0801120A9
:100EF00000F098F8000200B22081102000F092F873
:100F0000B4F9081008432081132000F08BF8000288
:100F100000B26081122000F085F8B4F90A1008438D
:100F20006081152000F07EF8000200B2A08114203C
:100F300000F078F8B4F90C100843A081172000F0F5
:100F400071F8000200B2E081162000F06BF8B4F9ED
:100F50000E100843E081192000F064F8000200B28E
:100F60002082182000F05EF8B4F9101008432082A7
:100F70001B2000F057F8000200B260821A2000F037
:100F800051F8B4F91210084360821D2000F04AF8AD
:100F9000000200B2A0821C2000F044F8B4F9141042
:100FA0000843A0821F2000F03DF8000200B2E0825A
:100FB0001E2000F037F8B4F916100843E0822846E6
:100FC00000F002F8012059E710B5044664B9542135
:100FD000742000F09DF91021752000F099F9572137
:100FE000742000F095F91CE0012C0CD1282174200C
:100FF00000F08EF90021752000F08AF92B21742071
:1010000000F086F90DE0022C0BD12C21742000F0A9
:101010007FF91021752000F07BF92F21742000F05A
:1010200077F910BD70B5054645F08005002401E054
:10103000601C84B2052CFBDB01210A4801F0F5F8A5
:10104000FF2141EA052001F073FB06460121054816
:1010500001F0EDF8002401E0601C84B2052CFBDBFC
:10106000F0B270BD000402402DE9F74F2DED088B62
:1010700082B00646B069C1174FF4FA33C41A61F161
:101080000005A4FB041005FB040004FB0503B6F9EE
:101090001000C217A1FB00C903FB009001FB020175
:1010A000CDE900C1B6F90E00C117A0FB042301FB76
:1010B000043100FB0510400440EAD2305304DDE95E
:1010C00000219A184841CDE90020B6F90C00C20071
:1010D000DDE90001001C4A41CDE90002A4FB041037
:1010E00005FB040004FB0503B6F90A004FEAE07CA7
:1010F000A1FB002903FB009001FB0C01100A40EA50
:1011000001600A12B6F90810CB17A446A1FB0CAB7C
:1011100003FB04B301FB0531090341EA1A514FEA0D
:101120000A33C41842EB0105231C45F50040F18841
:101130000022A3FB019C00FB01C003FB02014C1039
:10114000CD17002184EA01006940084304D102B0B0
:10115000BDEC088BBDE8FE8F0B980068C0F58010D1
:101160004FEAE07807464FEAC87242EA5702FB07A7
:10117000DDE90001181A62EB010240F63543002157
:10118000A0FB039B02FB03B201FB002122462B467E
:101190004846FFF76FF807468846B6F91600C217AB
:1011A000790B41EAC84C4FEA6833A0FB0C1902FBEB
:1011B0000C9200FB0322780B40EAC8404FEA6833E8
:1011C000A1FB00C902FB009001FB03014FEA5C6038
:1011D00040EAC1144D16B6F91400C217A0FB07135C
:1011E00002FB073200FB0822C80C40EA4231D2144D
:1011F000CDE900123B1948EB0501DDE900209A1802
:101200004141100A40EA01600B12B6F91210CA17E8
:10121000120142EA11724FEA011C10EB0C0743EB7A
:1012200002083846414603F0DFFA9FED1A0B53ECF3
:10123000102B03F069F90C9A106051600C99086842
:1012400049689FED161B53EC112B03F05BFB41EC3F
:101250001B0B9FED141BB0EE4B0AF0EE6B0A02F075
:10126000DBF8B0EE40AAF0EE60AA9FED100B53EC55
:10127000102B51EC1A0B03F079FC9FED0E0B53EC85
:10128000102B03F03FFB03F051F80C99886000BF6E
:101290005DE7000000000000000070405F11630285
:1012A00081B2E43E7945D9CC955BC83F000000008F
:1012B0000000F03F0000000040A5E54070B54D681B
:1012C000ED100688A5EB4605B0F902607543EB12F8
:1012D00005884E68C5EB26156D432D13B0F90460E3
:1012E0007543AC131D198561856905EB850580354E
:1012F0002D1200EE105AF8EEC00A9FED041A60EEAF
:10130000810A10EE905AD56070BD00000AD7233CC8
:1013100070B505460E46002401E0601CC4B2052CE1
:10132000FBDB0121084800F080FF46EA052001F0C0
:10133000FFF90121044800F07AFF002401E0601C5D
:10134000C4B2052CFBDB70BD0004024070B52DED6E
:10135000048B04460125A06900283DDDA06903F047
:101360002BFA41EC180B2068616853EC182B03F042
:10137000CBF8E0612162A06903F01EFA41EC190B81
:10138000A068E16853EC192B03F0BEF802F0CEFF21
:101390006062A06903F010FA41EC190B20696169E1
:1013A00053EC192B03F0B0F802F0C0FFA06200204C
:1013B000A0619FED0C0B51EC100B206061609FED64
:1013C000090B51EC100BA060E1609FED060B51EC96
:1013D000100B2061616100E000252846BDEC048B04
:1013E00070BD0000000000000000000000BFFEE72C
:1013F0002DE9F0414A494B4800F0FEFA00287CD024
:1014000049480078C0B94FF40041484800F00FFF48
:1014100000F071FB4FF40041444800F006FF4FF428
:1014200000504349088000204880022001F026FB3C
:1014300001203D4908706CE03B480078012829D123
:10144000C1033A4800F0F3FE00F055FB4FF40041B1
:10145000364800F0EAFE37480088040435484588DD
:1014600044EA0500FFF706FC38B16019800A06B2AD
:10147000022231493046FFF749FC48F204002C496A
:10148000088001204880022001F0F8FA0220264955
:1014900008703EE024480078022817D181032348D1
:1014A00000F0C5FE00F027FB4FF400411F4800F09C
:1014B000BCFE48F204001E4908800120488002203A
:1014C00001F0DCFA03201849087022E01648007881
:1014D00003281ED14FF40041144800F0A8FE15481F
:1014E00000880404134845886019400906B2B71102
:1014F00007F40070002804DD00E00EE047F47C40B3
:1015000007B203220C493846FFF700FC00200649C9
:1015100008700349034800F071F9BDE8F08100004C
:1015200020800010106002401200002000000240E5
:10153000280000202C0000206009002070B52F49F1
:101540002F4800F059FA002856D02E480078B0B93C
:1015500002212D4800F06BFE2C480488458829465E
:101560002046FFF701F900F0C6FAFFF7BFFAFFF7D0
:10157000D1FAFFF7E3FA01202249087038E0214848
:101580000078012817D101031F4800F050FE00F039
:10159000B2FA4FF480511C4800F047FE4FF400505F
:1015A0001B49088000204880022001F019F9022020
:1015B000144908701CE013480078022818D1C102B1
:1015C000114800F034FE1148008804040F48458893
:1015D00044EA0500FFF74EFB38B16019800A06B2F5
:1015E00001220C493046FFF791FB002005490870A5
:1015F0000249034800F002F970BD000000800018A5
:101600005860024011000020000402402400002025
:1016100020000020600900202DE9F0415E495F486C
:1016200000F0EAF9002870D05D480078B0B91021C8
:101630005C4800F0FCFD00F05EFA1021594800F013
:10164000F4FD4FF4005058490880002048800220E3
:1016500000F07CFF01205249087097E05048007864
:10166000012829D110214F4800F0E1FD00F043FA94
:1016700001214E4800F0D9FD4D48008805044C4832
:10168000468845EA0600FFF7F5FA38B1A819800A3E
:1016900007B2002247493846FFF738FB4FF2FF30C8
:1016A000414908804FF6FF704880022000F04EFF4D
:1016B00002203B49087069E03948007802282DD1A2
:1016C00001213A4800F0B3FD3948048804F00800CD
:1016D0003949087039480078082817D10846007839
:1016E000A0B900F008FA0121304800F09EFD4FF645
:1016F000FF202D4908804FF6FF704880022000F03F
:1017000025FF03202649087003E043E00020244918
:101710000870294800782949087037E02048007887
:10172000032820D10121214800F081FD00F0E3F9D8
:1017300001211E4800F079FD1D48048824044088DA
:101740000443C4F313141E4844604FF2FF7016495B
:1017500008804FF6FF704880022000F0F7FE04205A
:101760000F49087012E00121104800F060FD104898
:101770000488240440880443C4F31314104804600C
:1017800001201049087000200549087002490348EB
:1017900000F034F8BDE8F0812080001010640240B1
:1017A0001000002000000240180000200004024049
:1017B0001C00002060090020080000200900002013
:1017C00030000020040000200246094B9A4201D25A
:1017D000084801E00648103801F000531BB1064BE1
:1017E0000B40C36002E0044B0B4083607047000075
:1017F00010640240006002407D0F7D0F0246094BDD
:101800009A4201D2084801E00648103801F000531E
:101810001BB1064B0B40C36002E0044B0B408360DE
:101820007047000010640240006002407D0F7D0F91
:1018300021B1026842F00102026003E0026822F076
:101840000102026070470000016821F0010101609F
:101850000021016041608160C1600161212141611D
:101860004A49884204D13D21484A103A91608CE0AF
:1018700046491831884205D14FF47461434A103A01
:10188000916082E041493031884205D14FF47411B2
:101890003E4A103A916078E03C494831884205D18F
:1018A0004FF07461394A103A91606EE03749603107
:1018B000884204D13649354A103AD16065E033494F
:1018C0007831884204D13349304A103AD1605CE023
:1018D0002E499031884204D12F492C4A103AD160C8
:1018E00053E02A49A831884205D14FF03D51274A9B
:1018F000103AD16049E02949884204D13D21274A64
:10190000083A116041E025491831884205D14FF469
:101910007461224A083A116037E020493031884228
:1019200005D14FF474111D4A083A11602DE01B498E
:101930004831884205D14FF07461184A083A116065
:1019400023E016496031884204D11149134A121F1D
:1019500011601AE011497831884204D10D490F4ACB
:10196000121F116011E00D499031884204D10A49DB
:101970000A4A121F116008E00849A831884204D1C0
:101980004FF03D51054A121F116070471060024030
:101990003D000020400F002000003D201064024068
:1019A000014600200A6802F001020AB1012000E0AD
:1019B0000020704730B503460A46002000240B4D36
:1019C000AB4201D20A4901E00849103902F0005542
:1019D0000DB14C6800E00C68064D2C4004EA02058D
:1019E0000DB1012000E0002030BD00001064024075
:1019F000006002407D0F7D0F70B50246002000247C
:101A00000025124EB24201D2114B01E00F4B103BA8
:101A1000104E0E4036B11E2606EAD124166806EA9C
:101A2000040502E0566906F0800501F000560EB18B
:101A30005C6800E01C68084E344004EA010616B1F8
:101A40000DB1012000E0002070BD000010640240D4
:101A5000006002403C0F3C0F7D0F7D0F10B501F080
:101A600080034BB122B1436943F08003436103E03B
:101A7000436923F08003436180290BD02AB10368B6
:101A800001F01E042343036004E0036801F01E0418
:101A9000A343036010BD000010B500220268134B81
:101AA0001A40CC680B6823434C6923438C69234359
:101AB000CC6923430C6A23434C6A23438C6A234337
:101AC0004C6B23438C6B23431A430260426922F020
:101AD0000702D1E90B3423431A4342610B69436087
:101AE0004B6883608B68C36010BD00003F801CF0B2
:101AF00041607047704700BF00BF00BF00BF00BF1C
:101B000000BF00BF00BF00BF00BF00BF00BF00BFDD
:101B100000BF00BF00BF00BF00BF00BF00BF00BFCD
:101B200000BF00BF00BF00BF00BF00BF00BF00BFBD
:101B300000BF00BF00BF00BF00BF00BF00BF00BFAD
:101B400000BF00BF00BF00BF00BF704710B56FF0FF
:101B5000040001F067F94FF0E020006920F0010077
:101B60004FF0E0210861084800680849B0FBF1F037
:101B700007490870044800684FF4FA51B0FBF1F0CF
:101B80000449088010BD00004800002000127A00BF
:101B900014000020160000200146114A12884A4312
:101BA0004FF0E0235A6100229A611A46126942F00E
:101BB00001021A6100BF4FF0E022106900F001023B
:101BC0001AB100F48032002AF5D04FF0E0221269F9
:101BD00022F001024FF0E0231A6100229A6170475F
:101BE000160000200146114A12784A434FF0E023C4
:101BF0005A6100229A611A46126942F001021A6182
:101C000000BF4FF0E022106900F001021AB100F4A9
:101C10008032002AF5D04FF0E022126922F0010252
:101C20004FF0E0231A6100229A61704714000020EF
:101C30002DE9F0472DED048B002400250026002718
:101C4000A046A146022000F02FFA00287ED0D448FA
:101C500000680A30D24908600846006844F62061EE
:101C6000884202D10020CE490860CE49CE48FEF716
:101C7000DFFC0546CD49CE48FEF774FF0446CD484B
:101C8000FFF764FB0646AB20CB4908701220487072
:101C90000846408840F001004880C44890ED000AA2
:101CA00010EE101A084603F023F941EC190BB0EEC0
:101CB000490AF0EE690A01F0A3FBB0EE408AF0EEAB
:101CC000608A9FEDBE0B53EC102B51EC180B02F009
:101CD000DDFD44D2B54890ED010A10EE101A084619
:101CE00003F006F941EC190BB0EE490AF0EE690A6F
:101CF00001F086FBB0EE408AF0EE608A9FEDAF0BFC
:101D000053EC102B51EC180B02F0C0FD27D2A74862
:101D100090ED020A10EE101A084603F0E9F841ECC3
:101D2000190BB0EE490AF0EE690A01F069FBB0EE5A
:101D3000408AF0EE608A9FEDA10B53EC102B51EC22
:101D4000180B02F0A3FD0AD2012C00E023E106D11A
:101D50009948408840F002009749488005E096483D
:101D6000408820F00200944948808E4890ED000A97
:101D700010EE101A084603F0BBF841EC190BB0EE58
:101D8000490AF0EE690A01F03BFBB0EE408AF0EE42
:101D9000608A9FED8C0B53EC102B51EC180B02F06A
:101DA00075FD42D27F4890ED010A10EE101A0846E8
:101DB00003F09EF841EC190BB0EE490AF0EE690A07
:101DC00001F01EFBB0EE408AF0EE608A9FED7D0BC5
:101DD00053EC102B51EC180B02F058FD25D2714832
:101DE00090ED020A10EE101A084603F081F841EC5B
:101DF000190BB0EE490AF0EE690A01F001FBB0EEF2
:101E0000408AF0EE608A9FED6F0B53EC102B51EC83
:101E1000180B02F03BFD08D2012D06D16648408820
:101E200040F004006449488005E06348408820F0A1
:101E30000400614948805F48406A00EE100ADFED07
:101E4000630AB4EEE00AF1EE10FA13D25948406A80
:101E500000EE100ADFED5E0AB4EEE00AF1EE10FAD1
:101E600008DD012E06D15448408840F00800524950
:101E7000488005E05048408820F008004E494880DE
:101E800054480078012806D14B48408840F01000A3
:101E90004949488005E04848408820F010004649FC
:101EA00048804D480078012806D14348408840F0DA
:101EB00020004149488005E03F48408820F020004C
:101EC0003D49488045480078012806D13A48408875
:101ED00040F040003849488005E03748408820F00D
:101EE0004000354948802E480068334948602F48F3
:101EF000006888602D484068C8602C488068086188
:101F00002A4890ED030AF3EE000A20EE200ABDEE07
:101F1000C00A10EE100A0FFA80F80846A0F81480E4
:101F200020480068C1F816001E484068C1F81A0031
:101F30001C488068C1F81E001A4890ED030AF3EEB1
:101F4000000A20EE200ABDEEC00A10EE100A07B209
:101F5000084647841748406A48621648806A00EE7F
:101F6000100AF3EE000A20EE200ABDEEC00A10EEC1
:101F7000100A0FFA80F90846A0F828902A2102F0EA
:101F800043F90D4981F82A002B210B4801F024F96F
:101F9000022000F059F8BDEC048BBDE8F08700008A
:101FA0000C00002030090020F008002090090020DB
:101FB00060090020CC0900205C0000200000000027
:101FC00000007940000000403333FB3F00A00C4686
:101FD0000000FAC3010000200200002000000020E1
:101FE00010B5042000F060F810B1042000F02CF8C7
:101FF00010BD000010B5802000F056F8C0B10D48AB
:102000000078012806D10C490C48FEF7F3FE0020A9
:102010000849087002210A4800F007F90020094920
:1020200008804880022000F0DBFB802000F00CF8E4
:1020300010BD000003000020CC090020BC090020D6
:1020400000040240200000200149086070470000A1
:10205000143C01401FB50121084600F095F901210B
:10206000880300F0B1F900208DF804008DF8070016
:102070000220009069460B4800F06CF80121002016
:1020800000F03CFE0220029000208DF80C00102091
:102090008DF80D0001208DF80E0002A800F010F858
:1020A0001FBD00000000024001460020034A1268E4
:1020B0000A400AB1012000E000207047143C0140B2
:1020C000002123498279002A3AD00A46126803681F
:1020D0009A430B461A600A1D126803689A430B1D47
:1020E0001A60027911440A6803681A430A60184AA0
:1020F0000832126803689A43154B08331A601A1D98
:10210000126803689A43124B0C331A604279102A02
:102110000ED11A1F126803681A430D4B08331A6058
:102120001A1D126803681A43094B0C331A600DE03C
:102130000749427911440A6803681A430A6005E0B6
:10214000027911440A6803689A430A6070470000E4
:10215000003C0140F0B50A4600210023002400BFE6
:102160003DE0012505FA01F3156805EA03049C42E8
:1021700034D105684F000326BE40B543056015798C
:102180004E00B5400668354305601579012D02D033
:102190001579022D16D185684F000326BE40B54340
:1021A000856055794E00B540866835438560456841
:1021B00001268E40B5434560456896798E40B6B29B
:1021C00035434560C5684F000326BE40B543C56032
:1021D000D5794E00B540C6683543C560491C102905
:1021E000BFD3F0BDF0B5002300244D07ED0E02FA79
:1021F00005F3CE1000F1200555F826504E07F70ED6
:102200000F26BE40B543CF1000F1200646F82750F8
:10221000CE1000F1200555F8265045EA0304CE10F3
:1022200000F1200545F82640F0BD41837047018349
:10223000704700BFFEE700BFFEE7704708B54FF4E8
:10224000C06000F095F817208DF8000000208DF890
:10225000010001208DF802008DF80300684600F0AF
:102260004BF838208DF8000000208DF80100022086
:102270008DF8020001208DF80300684600F03CF85C
:102280000E208DF8000000208DF8010003208DF84D
:10229000020001208DF80300684600F02DF80B20A5
:1022A0008DF8000000208DF8010004208DF8020058
:1022B00001208DF80300684600F01EF825208DF8F7
:1022C000000001208DF8010000208DF8020001209F
:1022D0008DF80300684600F00FF807208DF8000025
:1022E00000208DF801008DF8020001208DF8030018
:1022F000684600F001F808BD70B5002100230F22E8
:10230000C4781CB3174C246804F4E064C4F5E0649A
:10231000C4F30721C1F10404E3B20A4144789C40AC
:10232000E1B28478144021430C07210E0E4C05784D
:102330006155047804F01F050124AC4005786D1147
:10234000AD0005F1E025C5F8004109E0047804F08E
:102350001F050124AC40054D0678761145F826404E
:1023600070BD00000CED00E000E400E080E100E062
:1023700002490143024A1160704700000000FA055B
:102380000CED00E07047000029B1064A12680243D4
:10239000044B1A6004E0034A12688243014B1A603E
:1023A000704700003038024029B1064A12680243E3
:1023B000044B1A6004E0034A12688243014B1A601E
:1023C000704700004038024029B1064A12680243B3
:1023D000044B1A6004E0034A12688243014B1A60FE
:1023E0007047000044380240F0B50021002200246C
:1023F000022500260223324F3F6807F00C0121B16D
:10240000042905D0082937D105E02E4F076036E0B2
:102410002C4F076033E02A4F3F1F3F68C7F38056B9
:10242000274F3F1F3F6807F03F036EB1254FB7FBB3
:10243000F3F7DFF88CC0ACF1040CDCF800C0CCF38F
:10244000881C07FB0CF40CE01E4FB7FBF3F7DFF81A
:1024500070C0ACF1040CDCF800C0CCF3881C07FBA6
:102460000CF4174F3F1F3F68C7F301477F1C7D00E7
:10247000B4FBF5F7076002E0124F076000BF00BF32
:102480000F4F3F6807F0F00109090F4F7A5C0768AA
:10249000D74047600A4F3F6807F4E051890A0A4F66
:1024A0007A5C4768D7408760054F3F6807F4604112
:1024B000490B054F7A5C4768D740C760F0BD000004
:1024C000083802400024F4003800002030B58FB0F6
:1024D00004460D4601218805FFF756FF1948FFF70E
:1024E000B3F900BF1748FFF75BFA0028FAD14FF0A5
:1024F000C06000901448019002940020039004955D
:1025000005904FF48060069040000790800008908E
:102510004011099040020A9000200B9003200C907B
:1025200000200D900E9069460648FFF7B5FA01228B
:1025300010210448FFF792FA01210248FFF778F9C9
:102540000FB030BD106402400C30014010B504469D
:102550004FF0C0510A48FFF737F900210848FFF74C
:1025600067F900BF0648FFF71BFA0028FAD1214699
:102570000348FFF7BDFA01210148FFF759F910BDE3
:102580005864024030B58FB004460D4601218805DD
:10259000FFF7FAFE1848FFF757F900BF1648FFF794
:1025A000FFF90028FAD14FF0C06000901348019065
:1025B0000294402003900495002005904FF4806021
:1025C00006904000079080000890002009904FF48A
:1025D00000300A9000200B9003200C9000200D90FA
:1025E0000E9069460448FFF757FA00210248FFF7AA
:1025F0001FF90FB030BD0000586402400C3001409C
:1026000000B587B001210846FFF7BEFE012108464C
:10261000FFF7BAFE01210846FFF7B6FE0121084682
:10262000FFF7B2FE01210220FFF7AEFE01210803F1
:10263000FFF7CAFE052211463A48FFF7D3FD0522EF
:1026400006213848FFF7CEFD052207213548FFF760
:10265000C9FD2020009003208DF8050002208DF890
:10266000040000208DF8060001208DF8070069465F
:102670002C48FFF76FFD4020009069462948FFF77E
:1026800069FD8020009069462648FFF763FD102011
:10269000009001208DF8040069462248FFF75AFD9A
:1026A000012000908DF8040069461F48FFF752FD95
:1026B00010211C48FFF7BBFD01211B48FFF7B7FDA8
:1026C0000020ADF808004FF48270ADF80A004FF416
:1026D0000060ADF80C000020ADF80E00ADF8100061
:1026E0004FF40070ADF812001820ADF8140000206F
:1026F000ADF816000720ADF8180002A90B4800F04D
:10270000DEFA01220221094800F0C2FA0122114634
:10271000064800F0BDFA0121044800F0ADFA07B008
:1027200000BD0000000002400004024000300140F3
:1027300010B5044600BF0221094800F0B2FA002893
:10274000F9D02146064800F0B8FA00BF012104483C
:1027500000F0A7FA0028F9D0014800F0ABFA10BD4C
:102760000030014030B58FB004460D4601214805C8
:10277000FFF70AFE1848FFF767F800BF1648FFF793
:102780000FF90028FAD1009014480190029400201B
:102790000390049505904FF48060069040000790E8
:1027A000800008904011099040020A9000200B9090
:1027B00003200C9000200D900E9069460648FFF70C
:1027C0006BF9012210210448FFF748F90121024862
:1027D000FFF72EF80FB030BD586002400C380040B3
:1027E00010B504460B490C48FEF7EEFF00210A48DD
:1027F000FFF71EF800BF0848FFF7D2F80028FAD10B
:1028000021460548FFF774F901210348FFF710F846
:1028100010BD0000200000207060024030B58FB075
:1028200004460D4601214805FFF7AEFD1748FFF7A6
:102830000BF800BF1548FFF7B3F80028FAD1009055
:1028400013480190029440200390049500200590C5
:102850004FF48060069040000790800008900020B0
:1028600009904FF400300A9000200B9003200C9048
:1028700000200D900E9069460448FFF70DF90021E5
:102880000248FEF7D5FF0FB030BD00007060024077
:102890000C38004000B587B001210220FFF774FD1D
:1028A00001210220FFF770FD01210220FFF76CFDDE
:1028B00001210220FFF768FD01210220FFF764FDDE
:1028C00001218803FFF770FD05220D213D48FFF728
:1028D00089FC05220E213B48FFF784FC05220F21CD
:1028E0003848FFF77FFC4FF40050009003208DF82C
:1028F000050002208DF8040000208DF8060001205C
:102900008DF8070069462F48FFF724FC4FF48040FC
:10291000009069462B48FFF71DFC4FF400400090E3
:1029200069462848FFF716FC4FF4805000900120BC
:102930008DF8040069462348FFF70CFC0220009044
:1029400001208DF8040069461E48FFF703FC4FF490
:1029500080511C48FFF76BFC02211A48FFF767FC07
:102960000020ADF808004FF48270ADF80A004FF473
:102970000060ADF80C000020ADF80E00ADF81000BE
:102980004FF40070ADF812001020ADF814000020D4
:10299000ADF816000720ADF8180002A90A4800F0AB
:1029A0008EF901220221084800F072F90122114635
:1029B000054800F06DF90121034800F05DF907B00A
:1029C00000BD0000000402400038004010B504467D
:1029D00000BF0221094800F064F90028F9D021461F
:1029E000064800F06AF900BF0121044800F059F9D7
:1029F0000028F9D0014800F05DF910BD0038004012
:102A000030B58FB004460D4601214805FFF7BCFCE8
:102A10001848FEF719FF00BF1648FEF7C1FF00284F
:102A2000FAD100901448019002940020039004957C
:102A300005904FF480600690400007908000089059
:102A40004011099040020A9000200B9003200C9046
:102A500000200D900E9069460648FFF71DF80122F0
:102A600010210448FEF7FAFF01210248FEF7E0FEBC
:102A70000FB030BD106002400C3C004010B5044661
:102A80000B490C48FEF7A0FE00210A48FEF7D0FED5
:102A900000BF0848FEF784FF0028FAD12146054808
:102AA000FFF726F801210348FEF7C2FE10BD000023
:102AB000000800208860024030B58FB004460D4603
:102AC00001214805FFF760FC1748FEF7BDFE00BF77
:102AD0001548FEF765FF0028FAD1009013480190D1
:102AE0000294402003900495002005904FF48060EC
:102AF00006904000079080000890002009904FF455
:102B000000300A9000200B9003200C9000200D90C4
:102B10000E9069460448FEF7BFFF00210248FEF709
:102B200087FE0FB030BD0000886002400C3C0040C2
:102B300000B587B001210220FFF726FC0121022009
:102B4000FFF722FC01210220FFF71EFC01210846AD
:102B5000FFF71AFC0121C803FFF726FC0622032118
:102B60003548FFF73FFB062204213348FFF73AFBC5
:102B7000062205213048FFF735FB0820009003208E
:102B80008DF8050002208DF8040000208DF8060065
:102B900001208DF8070069462748FFF7DBFA10206F
:102BA000009069462448FFF7D5FA20200090694636
:102BB0002148FFF7CFFA4FF40040009001208DF834
:102BC000040069461D48FFF7C5FA4FF400411B4851
:102BD000FFF72DFB0020ADF808004FF48270ADF830
:102BE0000A004FF40060ADF80C000020ADF80E00B4
:102BF000ADF810004FF40070ADF812001020ADF8E1
:102C000014000020ADF816000720ADF8180002A946
:102C10000B4800F054F801220221094800F038F86E
:102C200001221146064800F033F80121044800F063
:102C300023F807B000BD000000040240000002407D
:102C4000003C004010B5044600BF0221094800F0D6
:102C500028F80028F9D02146064800F02EF800BFD9
:102C60000121044800F01DF80028F9D0014800F0C7
:102C700021F810BD003C004021B1028842F0400222
:102C8000028004E002884FF6BF731A40028070474A
:102C90001AB183880B43838002E083888B4383804F
:102CA00070470246002013890B400BB1012000E061
:102CB000002070470146888970478181704710B5B0
:102CC0000022028802F441520B884C8823438C88EE
:102CD0002343CC8823430C8923434C8923438C8989
:102CE0002343CC8923431A430280838B4FF2FF7422
:102CF000234083830B8A038210BD704730B50022C6
:102D00008B071C0F0F2303FA04F20B4B8C1053F8A4
:102D100024309343084C8D1044F8253023468C1002
:102D200053F824308C07240F00FA04F42343024C98
:102D30008D1044F8253030BD083801400CB5002016
:102D4000019000903348006840F4803031490860B9
:102D500000BF3048006800F4003000900198401C2B
:102D60000190009818B90198B0F5A04FF1D1294809
:102D7000006800F4003010B10120009001E0002054
:102D800000900098012844D122484030006840F06B
:102D900080502049403108601F48006840F440409E
:102DA0001D4908601B48083000681A49083108604E
:102DB0000846006808600846006840F480500860D3
:102DC0001648091F0860081F006840F08070091F3E
:102DD000086000BF0F48006800F000700028F9D0BC
:102DE00040F202700E4908600A480830006820F07E
:102DF00003000849083108600846006840F00200F6
:102E0000086000BF03480830006800F00C00082884
:102E1000F8D10CBD0038024000700040105441074A
:102E2000003C0240042808D14FF0E021096941F03C
:102E300004014FF0E022116107E04FF0E021096941
:102E400021F004014FF0E02211617047704700004B
:102E500010B51548006840F4700013490860134825
:102E6000006840F001001149086000200F49083156
:102E700008600E4800680E4908400C4908600D487B
:102E8000091D0860081F006820F48020091F0860E1
:102E9000002006490C310860FFF750FF4FF000603A
:102EA00001498039086010BD88ED00E0003802401B
:102EB000FFFFF6FE1030002410B5FEF747FEC023DA
:102EC00040F224420C214FF4612000F015F96421F6
:102ED0001F4800F0B9F84FF400611E4800F05CF89C
:102EE000FFF78EFBFFF7D6FCFFF722FE3220FEF73E
:102EF00053FEFDF767FB18490870FDF777FBFDF7F8
:102F0000A7FC16490870FDF753FD00211448FDF792
:102F1000ACFF1449087002211348FFF733FB02216C
:102F20001248FFF77BFC02211148FFF7C5FD022183
:102F30001048FFF7CBFA02210F48FFF713FC0221DC
:102F40000E48FFF75DFDFFF785F8FFF777F910BD35
:102F500087000020EB00002002000020010000207C
:102F6000A009002000000020180000202000002000
:102F7000280000201C000020240000202C0000203D
:102F800010B50121014800F003F810BD0004004015
:102F9000CA4302827047000030B58FB004460D4628
:102FA00001218805FFF7F0F91748FEF74DFC00BF37
:102FB0001548FEF7F5FC0028FAD14FF000600090AC
:102FC00012480190029400200390049505904FF45C
:102FD000806006900020079008904FF48070099060
:102FE00000020A9000200B9003200C9000200D900E
:102FF0000E9069460448FEF74FFD01210248FEF796
:1030000017FC0FB030BD00004064024004100140C6
:1030100010B504464FF020510A48FEF7D5FB0021B9
:103020000848FEF705FC00BF0648FEF7B9FC00287B
:10303000FAD121460348FEF75BFD01210148FEF766
:10304000F7FB10BDB864024030B58FB004460D46A2
:1030500001218805FFF798F91848FEF7F5FB00BF36
:103060001648FEF79DFC0028FAD14FF00060009052
:10307000134801900294402003900495002005908D
:103080004FF48060069000200790089009904FF45C
:1030900080300A9000200B9003200C9000200D90AF
:1030A0000E9069460548FEF7F7FC00210348FEF73D
:1030B000BFFB0120FFF7ACFF0FB030BDB86402408A
:1030C0000410014010B540F22441094800F0C4F852
:1030D00060B100210748FEF7ABFB054800880448B3
:1030E000808840F22441024800F092F810BD0000B0
:1030F0000010014040640240F0B587B007460E461C
:1031000015461C4601210846FFF73EF901210846F5
:10311000FFF73AF901211020FFF756F9072209219C
:103120002B48FFF75FF807220A212948FFF75AF8D2
:103130004FF40070059003208DF8190002208DF8DF
:10314000180000208DF81A0001208DF81B0005A939
:103150001F48FEF7FFFF4FF48060059005A91C484B
:10316000FEF7F8FF01970020ADF80800ADF80A005F
:10317000ADF80C00ADF81000ADF80E6001A91548CF
:1031800000F0BAF8802C04D101228021114800F00F
:103190005AF8402C04D1012240210E4800F053F887
:1031A000C02C09D1012280210A4800F04CF80122EC
:1031B0004021084800F047F825B10122294605487A
:1031C00000F074F80121034800F031F807B0F0BDB9
:1031D000000002400010014070B505460C4600BFDB
:1031E0004FF020510848FEF7E5FB0028F8D0642195
:1031F0000648FDF7DAF8224629460448FDF75EF84E
:103200002046FFF705FF70BDB8640240870000202C
:1032100010B50022002340F66A14A14200D100BF7D
:103220000A1201249440A3B2DC43048010BD21B1F2
:10323000828942F40052828104E082894DF6FF7354
:103240001A40828170471AB1838A0B43838202E05D
:10325000838A8B438382704770B502460024002323
:103260000025002040F66A16B14200D100BFC1F32C
:10327000421501F01F03012606FA03F3012D02D1C6
:103280009689334006E0022D02D1168A334001E0D0
:10329000968A33400C12012606FA04F4168834404C
:1032A00013B10CB1012000E0002070BDF0B5034661
:1032B000002400260025002040F66A17B94200D1FC
:1032C00000BF1846C1F3421401F01F06012707FA98
:1032D00006F5012C01D10C3004E0022C01D1103094
:1032E00000E014301AB107682F43076002E0076856
:1032F000AF430760F0BD00002DE9FF4705460E46CD
:103300000024A14600BFA046B08900B100BF2C8AAE
:1033100024F44054F08804432C82AC8941F20C60C0
:103320008443B08831890843718908430443AC81E0
:10333000AC8A24F44074B0890443AC826846FFF739
:1033400053F82048854202D01F48854202D1DDF85B
:103350000C9001E0DDF80890A88900F4004040B12D
:1033600009EBC90000EB091031684900B0FBF1F727
:1033700007E009EBC90000EB091031688900B0FBD8
:10338000F1F76420B7FBF0F004012009642101FB90
:103390001078A88900F4004040B1322000EBC8004A
:1033A000B0FBF1F000F00700044308E0322000EB2E
:1033B00008106421B0FBF1F000F00F0004432C81F1
:1033C000BDE8FF87001001400014014000BFFEE788
:1033D00003B401984100009850EAC12018BF0420AE
:1033E0004A0D18BF40F0010040F2FF72B2EB515F8E
:1033F00008BF40F00200012808BF052002B0704756
:103400002DED020B019820F0004001909DED000B86
:1034100002B07047000000002DE9F04D2DED040BC7
:103420002DED0E8B96B0DDE92550279CDDF890A0A0
:1034300025F0004624F00048BAF1000F14BF012126
:10344000002101EB4502FC4953184A1093422AD34C
:10345000002814BF0123002303EB44030B44F74966
:103460008B4220D358EA00019FEDF59B76D0DFF820
:10347000D8B35D4503D1BAF1000F05D188E0BAF1A8
:10348000000F08BF002100D0012101EB450111F51B
:10349000001F08D8002814BF0121002101EB4401BE
:1034A00011F5001F0BD99DED261B9DED240B16B0C9
:1034B000BDEC0E8B04B0BDE8F04D00F069BE0027F6
:1034C000002DBCBFE149884521DAE1498845A8BF04
:1034D00002271CDAC3451ADCDE4901EB2851142906
:1034E00008DDC1F1340220FA02F101FA02F282424F
:1034F0000DD108E058B9C1F1140228FA02F101FA1D
:1035000002F2424503D101F00101C1F1020756EA7E
:103510000A0124D1002C22DA002D18BF022F01D07D
:10352000012F0AD00220FDF708F816B0BDEC0E8B73
:1035300004B0BDE8F04D00F013BE0220FCF7FDFF23
:1035400000F00EFE51EC100B00F0E3FE41EC100B0E
:1035500016B0BDEC0E8B04B0BDE8F08D18E09FED09
:10356000BEAB9FEDBF8B002871D1B848804522D1FA
:1035700005F1804010F5801008BFBAF1000F07D0A8
:10358000B3450ADC002CA8BF9DED260BE0DA0DE068
:10359000B0EE490AF0EE690ADAE7002C06DA9DED92
:1035A000260B51EC100B00F0B4FE6FE0AE487844EF
:1035B00090ED000BCCE7D8454DD1002C48DA2EB168
:1035C00086423AD1BAF1000F42D126E0BAF1000F9B
:1035D00013D00220FCF7B1FF00F0F6FD8DED020BD9
:1035E0009DED240B8DED000B10EE900A039961F315
:1035F0001E0003909DED020BAAE78DED02AB9DED41
:10360000240B1AEE901A10EE900A8DED000B61F368
:103610001E0003909DED020B9AE78DED028B9DED50
:10362000240B18EE901A10EE900A8DED000B61F34A
:103630001E0003909DED020B8AE709DA9DED240B35
:1036400051EC190B53EC102B00F05EFF1EE020E054
:103650009DED240B7CE786421BDAB4F1804F0DD040
:10366000A4F10050B0F1FF5013D1002D11DB9DEDFE
:10367000240B51EC100B00F00BFE07E09DED240B2A
:1036800053EC102B51EC100B00F0C2BC41EC100BB2
:103690005EE79DED240B51EC100B00F0C4FDBAF178
:1036A000000FCDE90E0142D19FED710B46B3A6F19B
:1036B000E040B0F17F600CD05E4538D1002D00DADB
:1036C000A7B3022F0CBF01204FF0FF3001F074F8B8
:1036D000DCE7002D01DD002C0DDA002D01DD002CD2
:1036E0001FDB002D16DA002C14DB012F08BF9FED25
:1036F000620B3FF42DAFB0EE4A0AF0EE6A0A27E7FC
:10370000022F18BF002D0CD0012F0AD1002DFFF67B
:103710001FAF06E0002DB8BF002C08DA012F3FF4E0
:1037200017AFB0EE480AF0EE680A11E71BE001207F
:1037300000EBE57050EA070115D0791EB0EE498A1A
:10374000F0EE698A084308BF9FED4D8B4E48002577
:10375000804570DD4D494E48884514DDB0420DDB93
:10376000002C19DB2FE00120FCF7E7FE16B0BDECC2
:103770000E8B04B0BDE8F04D00F016BDB34502DC81
:10378000002C09DC1FE0864202DA002C1BDA03E081
:103790005E452BDD002C16DD0220FCF7CEFE00F08E
:1037A00013FD8DED020B53EC1A2B51EC180B01F0AD
:1037B000A9F8CDE900010399019861F31E00039077
:1037C0009DED020BC4E60220FCF7B7FE00F00CFDF5
:1037D00010EE901A18EE900A8DED020B8DED008B15
:1037E00061F31E0003909DED020BB1E69DED0E0B03
:1037F00053EC192B51EC100B01F090FA9FED260BB6
:10380000CDE9080153EC102B9DED080B51EC100B8A
:1038100001F078F89FED221B53EC112B01F0A6F973
:103820009DED081B53EC112B01F06CF89FED1E1B56
:1038300053EC112B3CE08CE0FFFF1F00FFFF0F005B
:10384000000000000000F03F0000F03F0000F07FAB
:103850000000404301FCFFFF000000000000F07F7B
:1038600000000000000000000E1C0000000000002E
:103870000000000000000080000000000000F0FFD9
:10388000000000000000F0BF0000E0410000F04335
:10389000FFFFEF3F00000000000000000000D03FED
:1038A000555555555555D53F000000000000E03FE7
:1038B00001F05CF99DED080B41EC1A0B53EC102B59
:1038C00051EC100B01F01EF853EC1A2B01F01AF812
:1038D00041EC1A0B9FEDFE0B53EC102B9DED080BEA
:1038E00051EC100B01F00EF841EC1B0B9FEDFA0BA5
:1038F00051EC1A0B53EC102B01F004F841EC1A0BAD
:103900009FEDF70B53EC102B9DED080B51EC100BBA
:1039100000F0F8FF53EC1A2B01F000FA41EC1A0BFF
:1039200051EC1B0B53EC1A2B00F032FD0690CDE945
:1039300006519DED060B53EC1B2B51EC100B01F0C7
:10394000EDF953EC1A2B01F011F941EC100B00F0DA
:10395000A1B90020B6F5801F0EDA9FEDE30B53EC02
:10396000102B9DED0E0B51EC100B00F0CBFFCDE9B1
:103970000E016FF034000E4600EB2650A0F2FF3728
:10398000C6F31300DA4940F07F6646F0405688429D
:10399000D8BF002408DDD7498142C8BF012403DC19
:1039A0000024A6F580167F1CD348784400EBC400A1
:1039B0000F9690ED00CB9DED0E0B53EC1C2B51ECB4
:1039C000100B01F0ABF99DED0E0B41EC1B0B53EC12
:1039D0001C2B51EC100B00F0DBFC41EC100B51ECFC
:1039E000190B53EC102B00F08FFD41EC1D0B51EC2B
:1039F0001B0B53EC1D2B00F085FF41EC1A0BBF484D
:103A00008DED10AB7844109590ED000B4FF0005009
:103A100040EA660000EB84408DED080B00F50020C5
:103A200009909DED080B53EC1C2B51EC100B01F091
:103A300075F99DED0E1B53EC112B01F097F841EC3D
:103A4000100B53EC102B9DED100B51EC100B00F0F4
:103A500059FF9DED080B41EC1C0B53EC102B9DED19
:103A6000100B51EC100B00F04DFF53EC1B2B01F031
:103A70007DF853EC1C2B01F051F953EC1D2B00F099
:103A800041FF41EC1C0B53EC1A2B51EC1A0B00F0CC
:103A900039FF41EC1B0B9A480621B0EE4B0AF0EEC1
:103AA0006B0A784400F0E0FAB0EE401AF0EE601ACB
:103AB000B0EE41DAF0EE61DA53EC1B2B51EC1B0B4C
:103AC00000F020FF53EC1D2B00F01CFF9DED100BB0
:103AD00041EC1B0B53EC1A2B51EC100B00F058FC73
:103AE00053EC1C2B00F00EFF53EC1B2B00F050FC92
:103AF0009DED100B41EC1B0B53EC102B51EC100BFC
:103B000000F000FF41EC1D0B9FED7FEB53EC1E2BF3
:103B100000F03EFC53EC1B2B00F03AFC0890CDE982
:103B200008519DED080B53EC1E2B51EC100B01F0CE
:103B3000F5F853EC1D2B01F0F1F853EC1B2B01F0C1
:103B400015F89DED080B41EC1D0B53EC102B9DED72
:103B5000100B51EC100B00F0D5FE41EC1B0B53EC9D
:103B60001A2B51EC1D0B00F0CDFE9DED080B41EC26
:103B70001A0B53EC102B51EC1C0B00F0C3FE53EC52
:103B80001A2B00F005FC41EC1A0B51EC1B0B53EC0B
:103B90001A2B00F0FDFB0C90CDE90C519DED0C0BA8
:103BA00053EC1B2B51EC100B01F0B8F853EC1A2B13
:103BB00000F0DCFF41EC1B0B9FED550B53EC102B81
:103BC0009DED0C0B51EC100B00F09CFE41EC1A0B20
:103BD0009FED510B51EC1B0B53EC102B00F092FEA0
:103BE00041EC1B0B9FED4E0B53EC102B9DED0C0B82
:103BF00051EC100B00F086FE53EC1B2B00F0C8FBC1
:103C000041EC100B4848784400EBC40090ED001BD9
:103C100051EC100B53EC112B00F0BAFB41EC1B0BD9
:103C2000384600F0C9FDCDE9080153EC1B2B51ECDF
:103C30001A0B00F0ADFB41EC100B3C48784400EB54
:103C4000C40090ED00CB51EC100B53EC1C2B00F09A
:103C50009FFB9DED081B53EC112B00F099FB069088
:103C6000CDE906519DED080B53EC102B9DED060B95
:103C700051EC100B01F052F853EC1C2B01F04EF8F4
:103C800053EC1A2B01F04AF853EC1B2B00F06EFF9B
:103C900041EC100B9DED261B53EC102B8DED001B02
:103CA00000959DED260B51EC100B00F02BFE9DEDC9
:103CB000000B41EC1A0B53EC102B9DED260B51EC35
:103CC000100B01F02BF89DED061B53EC112B2FE090
:103CD000000000604715F73FFE822B654715F73F50
:103CE00044DF5DF80BAE543E00000000000040438E
:103CF0008E9803007AB60B008A170000B8170000F0
:103D0000C216000000000000000000000000084093
:103D1000000000E009C7EE3FFD033ADC09C7EE3FB3
:103D2000F5015B14E02F3EBE4E15000008150000A3
:103D300000F0E8FD53EC1A2B00F02AFB9DED060B7A
:103D400041EC1A0B53EC102B9DED000B51EC100BBA
:103D500000F0D8FDCDE90C019DED0C0B51EC1A0BD8
:103D600053EC102B00F014FBCDE902010C46AA49DC
:103D70008C422FDB611A084318D19DED0C0B53ECDC
:103D8000102B9DED020B51EC100B00F0C7FF41EC26
:103D90001B0B9FEDA30B51EC1A0B53EC102B00F0F7
:103DA000F7FA53EC1B2B00F0ABFE2DD20220FCF7F0
:103DB000C4FB00F009FA10EE901A18EE900A8DED8F
:103DC000020B8DED008B61F31E0003909DED020B45
:103DD000FFF7BEBB944A24F00041914214D39349AB
:103DE000214408437FF4EFAC9DED0C0B53EC102BFA
:103DF0009DED020B51EC100B00F090FF53EC1A2BD1
:103E000000F07EFE7FF6DFAC24F000408849894A4E
:103E1000002601EB205182422BDA481C4FF480111E
:103E200021FA00F02044844AC0F30A517A44A1F2F6
:103E3000FF3192ED000B814A8DED080BCA4020EA5C
:103E40000202C0F3130040F48010C1F1140120FA03
:103E500001F60992002CB8BF76429DED080B53EC99
:103E6000102B9DED0C0B51EC100B00F057FFCDE922
:103E70000C019DED0C0B51EC1A0B53EC102B00F0C8
:103E800087FA9FED6F0B0890CDE9085153EC102B8A
:103E90009DED080B51EC100B00F034FD41EC1B0BB9
:103EA0009FED690B53EC102B9DED080B51EC100BA3
:103EB00000F028FD9DED0C0B41EC1C0B53EC102B7E
:103EC0009DED080B51EC100B00F028FF53EC1A2B62
:103ED00000F04CFE9FED5E1B53EC112B00F012FD29
:103EE00053EC1C2B00F054FA41EC1A0B51EC1B0B59
:103EF00053EC1A2B00F04CFACDE902019DED020BB8
:103F000053EC1B2B51EC100B00F008FF53EC1A2B59
:103F100000F02CFE9DED020B41EC1A0B53EC102B24
:103F200051EC100B00F0EEFCCDE908014A489DED84
:103F3000080B0521784400F097F89DED081B51EC23
:103F4000100B53EC112B00F0DDFC9DED021B53EC2C
:103F5000112B00F00BFECDE906019DED020B53EC99
:103F60001A2B51EC100B00F0CDFC53EC1A2B00F087
:103F70000FFA9FED3B0B41EC1A0B53EC102B9DED10
:103F8000060B51EC100B00F0C9FE9DED060B41EC49
:103F90001B0B53EC102B9DED020B51EC100B00F0A2
:103FA000B1FC53EC1B2B00F0AFFA53EC1A2B00F0D2
:103FB000B5FE9DED021B53EC112B00F0AFFE53EC50
:103FC000192B00F0D3FDCDE9020101EB06500115DC
:103FD0000029C8BF039015DC9DED020B324651EC61
:103FE000100B01F062F8FFF7F3F9042808BF00F0A6
:103FF000FBF832469DED020B51EC100B01F055F829
:10400000CDE902019DED020B51EC180B53EC102B86
:1040100000F078FCFFF73ABB000090400000000081
:10402000FE822B654715973C00CC904000346F3FD3
:1040300001FCFFFF0000E03F90130000FFFF0F00B6
:1040400000000000432EE63F396CA80C615C20BEE6
:10405000EF39FAFE422EE63F601200000000000039
:10406000000000000000004070B504462DED028BFA
:104070004D1E00EBC500B0EE408AF0EE608A90ED78
:10408000000B35F0060017D053EC182B51EC100B39
:1040900000F038FC41EC100B6D1E04EBC50090EDF8
:1040A000001B51EC100B53EC112B00F071F941EC9B
:1040B000100B35F00600E7D1022D36D0042D1CD0B0
:1040C000062D1CBFBDEC028B70BD53EC182B51ECC0
:1040D000100B00F017FC94ED0A1B53EC112B00F0B1
:1040E00057F953EC182B00F00DFC94ED081B53EC22
:1040F000112B00F04DF941EC100B53EC182B51EC47
:10410000100B00F0FFFB94ED061B53EC112B00F09D
:104110003FF953EC182B00F0F5FB94ED040B53EC36
:10412000102B00F035F941EC100B53EC182B51EC2F
:10413000100B00F0E7FB94ED021B53EC112B00F089
:1041400027F953EC182B00F0DDFB94ED001B53EC2A
:10415000112B00F01DF9BDEC028B41EC100B70BD72
:104160009FED070B10B553EC102B9FED070B51EC97
:10417000100B00F0C9F941EC100B10BD000000005D
:104180000000000000000000000000000000F03F00
:1041900010B553EC112B51EC100B00F0F9F841EC79
:1041A000100B10BD000000009FED050B10B553EC87
:1041B000102B51EC100B00F0A7F941EC100B10BDC7
:1041C00000000000000000009FED050B10B553EC4F
:1041D000102B51EC100B00F095FB41EC100B10BDB7
:1041E00000000000000000709FED050B10B553ECBF
:1041F000102B51EC100B00F085FB41EC100B10BDA7
:10420000000000000000001030B502460B460024FC
:10421000022104E0555C2544ACB24D1CE9B2994240
:10422000F8DBE0B230BD82B0CDE9000121F0004002
:1042300001909DED000B02B051EC100B7047000097
:104240001CB5FEF739FE00BF0C4800780128FBD1F1
:1042500000200A4908700A480168009140680190EE
:10426000084A69460848FDF729F8064A694606489B
:10427000FCF7FAFE012005490870E5E7040000207C
:1042800030000020BC090020A0090020030000200D
:1042900000B52DED048B83B041EC190B00F072FCDE
:1042A00041EC180B18EE100A18EE901A8DED008BE9
:1042B000002818BF0120084320F00040C0F17F60B3
:1042C00000F1E040C00F14D019EE101A19EE900A58
:1042D0008DED009B002918BF0121084320F000400C
:1042E000C0F17F6000F1E040C00F04BF0120FCF787
:1042F00024F951EC180B03B0BDEC048B00BD014652
:10430000002001F4000212B141F07F4000E00846B5
:10431000704781F00041704780F00040704721F005
:104320000041704720F000407047000021F000423B
:10433000A2F16052B2F5801F01F0004328BFD2F114
:104340007F6C0BD95FEA001C43EAC20242EB50705B
:1043500018BF704728BF20F001007047B2F5801FDA
:10436000BCBF184670474FEA410C1CF5001F02D233
:10437000084600F063BE70B500F06EFB00000089D7
:10438000FFF7F6BF4FF00040A0F580007047000037
:1043900010B591EA030F48BF83F0004300F1C684D3
:1043A000841A71EB030C05D2121943EB0C03001BAA
:1043B00061EB0C01DFF824E14FEA1154A4EB135C2C
:1043C0001EEA430F18BF9EEA445F73D023EA0E0330
:1043D000DCF1200E21EA045143F4801332D322FA97
:1043E0000CFE10EB0E0023FA0CFE41EB0E01CCF19B
:1043F000200E03FA0EFE10EB0E0051F10001B1F594
:10440000801FCCF1200E32D201EB045112FA0EF2D1
:10441000BDE8104058BF7047401C38BF5FEA4202F9
:1044200018BF7047002814BF20F0010041F10001BF
:104430004FEA410313F5001F38BF7047A1F1C04197
:1044400000F058BB012A43EB0302ACF1200CDCF175
:104450001F0E32BF4FF0000E23FA0CF310EB0300D7
:1044600041EB0451B4EB115FD0D0A1EB045101F545
:10447000801149085FEA300001EB04510ED350F17E
:10448000000038BF12FA0EFE08D1BDE81040C9E79F
:10449000401C38BF5FEA4202CAD1C3E7BDE8104002
:1044A0004FEA410313F5001F38BF7047A1F1C04127
:1044B00000F020BB9EEA445F08D011EA5E0FBDE821
:1044C000104004BF01F0004100207047BDE81040DB
:1044D00070B500F0C1FA00BF64FBBE3E0000E0FF13
:1044E00002494FF0000000F0AEBD00BF0000F87FB1
:1044F000491058BFC1F140415B1058BFC3F1404360
:104500008B42EFF3008070472DE9C04130B4DFF8F3
:10451000A0C23CEA111418BF3CEA131400F0EC806E
:1045200081EA03051CEA111444EAD57418BF1CEA99
:10453000131500F0C780A4EB05044FF0004545EAD1
:10454000C12145EAC32341EA505143EA525304F1E1
:104550007F74994204F500344FEAC0204FEAC2222A
:1045600008BF904200F09C804FEA13650FF240169E
:10457000765D4FEA134506FB05F7C7F1807706FB2A
:1045800007F74FEAD737A7FB03687642C8F58038AC
:10459000A7FB06CE38BFA8F1010807FB08E64FF0DD
:1045A000000EA6FB028CE6FB03CEDCF1000CCEF184
:1045B000004E38BFAEF1010EA6FB0C584FF00007BD
:1045C0004FF00005E6FB0E87A1FB08C6A0FB07CE57
:1045D00016EB0E0645F10005E1FB076515F1E04E0F
:1045E0007EBFA4F580345FEA46066D4116F1800770
:1045F00045F100054FEA17274FEA066647EA0567C7
:10460000A6F1DE46B6F1805F4FEA15251FD9384680
:1046100024F0010C05EBC471BCF1FE6F01EB0C1131
:1046200002D8F0BCBDE8008124425CBF01F5801EC9
:104630009EEAC47F02D4F0BCBDE80081244238D495
:10464000F0BCA1F1C041BDE8004100F053BA4FEA0F
:10465000D22242EA43524FEAD323A7FB02864FEA13
:10466000D02040EA415007FB03661EEA0E0F4FEAD6
:10467000D12105FB026658BFA6EB0056B6EB0056EB
:104680004FEA520E4EEAC37E18EB0E0E56EB530E57
:10469000BDD518EB02085E417F1C55F10005B6E759
:1046A0004FF480154FF000074FF000064FF0000860
:1046B000ADE7F0BC4FF0000001F1C04101F0004156
:1046C000BDE8008111EA0C1F0CEA131500D00CE0C4
:1046D00013EA0C1F00F025804FF00000F0BC81EAC7
:1046E000030101F00041BDE80081F0BCBDE80041DC
:1046F00081EA030100F0FEB9F0BCBDE8004170B5ED
:1047000000F0AAF9097EFC3E00F007B881EA030137
:104710004FF0000001F00041704781EA030100F012
:10472000E9B9F0BCBDE800414FF0000021497047F5
:10473000FFFDFBF9F7F5F4F2F0EEEDEBE9E8E6E466
:10474000E3E1E0DEDDDBDAD8D7D5D4D3D1D0CFCDED
:10475000CCCBCAC8C7C6C5C4C2C1C0BFBEBDBCBB26
:10476000BAB9B8B7B6B5B4B3B2B1B0AFAEADACAB21
:10477000AAA9A8A8A7A6A5A4A3A3A2A1A09F9F9EFB
:104780009D9C9C9B9A9999989797969595949393AD
:10479000929191908F8F8E8E8D8C8C8B8B8A898944
:1047A00088888787868585848483838282818180C7
:1047B0000000FF070000F87F10F0004248BF4042B1
:1047C000B0FA80F310FA03F10AD0C3F11D0303F528
:1047D00080634FEA415002EB035202EBD121704754
:1047E0004FF00000704700007FEAE17202D1101A1A
:1047F00062EB0101B1FA81F30B3B24D3994012D152
:10480000B0FA80F310FA03F108BF7047C3F11D033B
:1048100003F5406303EBC2234FEAD1224FEA415034
:1048200002EB03517047C3F1200C20FA0CFC9840B6
:10483000C3F1320303F5406303EBC22341EA0C01E9
:1048400001EB0351704710B5C3F1320CC3F1000402
:10485000C4F1200E0CF5406C0CEBC22201FA0EFCE8
:1048600021FA04F100FA0EF3E040BDE8104040EAFE
:104870000C0001EB025138BF7047401C41F10001B0
:104880005B0008BF20F001007047000051EA030CF4
:1048900017D41CF5801F58BFBCF5801F00F106809F
:1048A000994218BF704708BF9042704707D711F56B
:1048B000801F58BF13F5801F19D499427047894251
:1048C00070471CF5801F08D5BCF5801FF7D58B42BB
:1048D00018BF704708BF824270474FF4001C1CEBA2
:1048E000410F38BF1CEB430F01D28B42704770B5AC
:1048F00000F0B2F8922449004FF000514FF080537D
:10490000FFF7F6BDDFF848C170B51CEA111E1EBFE7
:104910001CEA13159EEA0C0F95EA0C0F00F06F804D
:1049200081EA030423EA4C134EEAD47E21EA4C11B7
:1049300041F4801143F48013AE44A1FB024CA0FB70
:104940000365AEF17F7E361955EB0C05A1FB034CD8
:104950004CF10003A0FB021C16EB0C06654153F161
:104960000003094218BF46F0010613F4007F0BD183
:104970004FEA03314FEA0530340341EA155140EA6A
:1049800016506FF003020AE04FEAC3214FEAC52038
:10499000F40241EA555140EA56506FF0020202EB30
:1049A0002E4201EB025585EACE710AD05FEA440C33
:1049B00018BF24F0004450F1000041F1000120EA4A
:1049C000D47040F2FE7C624500D270BDA84214BF94
:1049D0004FF080444FF04044002E08BF0024BEF149
:1049E000806FA8BFA1F1C041BDE8704080F2828015
:1049F0004FF0000001F1C04101F0004170479EEA14
:104A00000C0F0CEA131518BF95EA0C0F06D04FF0E7
:104A1000000081EA030E0EF0004170BD00F01CF8AA
:104A20008900013E00F007B800F009B84FEA430CD6
:104A30005FEA5C5C08D081EA030100F05BB84FEAF2
:104A4000410C5FEA5C5CF6D14FF000000149704711
:104A50000000FF070000F87F0EF1020E2EF0030E9B
:104A60005EF8046B364205D4012A43EB030515F5C5
:104A7000001F12D8012841EB010C1CF5001F0CD8B7
:104A80000ED14FEAD17C15F5001F0CEB4C0C0CF14C
:104A9000020C08BF4CEBD37C04E04FF0080C01E0A3
:104AA0004FEAD37C0CEB4C0526FA05F606F0070618
:104AB000B6F1040C06D20EEB860CBDE870404CF04B
:104AC000010C6047DFE80CF0090B02024FF00041D7
:104AD0004FF00000A1F5002170BD194610460128D5
:104AE00051EB010418BFD4F5001484BF002001F07D
:104AF000004170BD0808A0F500114FEA3101704770
:104B000053EA010C17D41CF5801F58BFBCF5801F59
:104B100000F106808B4218BF704708BF8242704781
:104B200007D713F5801F58BF11F5801F19D48B428A
:104B300070479B4270471CF5801F08D5BCF5801F4D
:104B4000F7D5994218BF704708BF904270474FF49D
:104B5000001C1CEB430F38BF1CEB410F01D29942E4
:104B600070470FB40CBC03BCFFF7C1BE91EA030F42
:104B700010B581F000413FF513AC83F0004300F025
:104B8000D5B800002DE9F04101F5801CBCF5001FEF
:104B9000C0F2A9804FEA115C21EA0C510CF1FD0C26
:104BA00041F480115FEA5C0C0CF5C07C01D340003D
:104BB000494130A4890241EA905187028E0E0A0CC5
:104BC000A45D04FB04F602FB06F6C6F14046A4FB16
:104BD0000662F60D46EA422606FB06F4A4FB012314
:104BE0005242C3F1404338BF5B1EA6FB0242002481
:104BF000E6FB0324D20B42EA4446A6FB0623A1FBB4
:104C000002E2A3FB07E4E3FB61426442C2F1404ECF
:104C100038BFAEF1010EA6FB04234FF00002E6FB05
:104C20000E32A2FB03463400E2FB6264A1FB06E6FF
:104C3000A4FB07E8E4FB61687642C8F1405838BF3E
:104C4000A8F10108A2FB06E4A3FB08E5E2FB685417
:104C5000A1FB05E6A7FB04E8E1FB648618F120054B
:104C600056F10006A809A8F11B08B10908F03F0891
:104C7000B8F10A0F40EA86601CD901EB0C51BDE87F
:104C8000F08100BFFCF5EEE8E2DDD8D3CFCBC7C39F
:104C9000C0BDB9B6B4B1AEACA9A7A5A3A19F9D9B59
:104CA0009A9896959392908F8D8C8B89888786851C
:104CB00084838281A0FB006800FB01F208EB4208BC
:104CC000B8EB872807D5341858EB0104D5D5401C1C
:104CD00051F10001D1E7341A78EB0104CDD4401E24
:104CE00071F10001C9E75FEA4C0C5FEA9C5C0DD1F1
:104CF00005D34FF0000001F00041BDE8F081BDE8B0
:104D0000F04170B5FFF7A8FE6DDBFFBEBDE8F041D6
:104D10004FF00000004970470000F87F10B591EA9D
:104D2000030F48BF83F000433FF53AAB841A71EBA1
:104D3000030C07D212198CF0004C43EB0C03001B40
:104D400061EB0C01DFF8A4E14FEA1154A4EB135C12
:104D50001EEA430F18BF9EEA445F00F0B08023EACA
:104D60006E03524221EA0451C3EB6E0338BF5B1E4F
:104D7000DCF1200E25D322FA0CFE10EB0E0043FAD4
:104D80000CFE41EB0E01CCF1200E03FA0EFE10EBEF
:104D90000E0051F10001CCF1200E29D412FA0EF2CE
:104DA00001EB0451BDE8104058BF7047401C1CBFC8
:104DB000B2F1004F704700280CBF491C20F00100E1
:104DC000704712EB020E43EB030218BF4FF0010EC7
:104DD0004EEA4202ACF1200CDCF11E0E54D943FA2B
:104DE0000CFE10EB0E0051F1FF31CCF11E0ED5D5AB
:104DF0000EF1010E12FA0EFE404141EB010101EBF2
:104E0000445C5FEA5C5C10D910EBDE7001EB04518E
:104E100038BFBEF1004FBDE8104018BF70470028F2
:104E20000CBF491C20F00100704730D24FEAD42C4F
:104E300011F5001124F400641BD0B1FA81F20B3A91
:104E4000A41AA41ED2F12003914030FA03F31943AF
:104E5000904001EBCC71002C01EB0451BDE81040F7
:104E6000A8BF704701F1C0414FF0000001F00041C0
:104E70007047B0FA80F310FA03F100D110BDE41AC4
:104E8000173C4805C90AE4E701EB045110BD49107D
:104E900001EB0451BDE810404FEA300002E04FF052
:104EA000000170474A0008BF0042F8D0B2F5001F69
:104EB00028BF704701F000414FF0000070479EEAA4
:104EC000445F07D011EA5E0FBDE8104004BF002127
:104ED00000207047BDE8104070B5FFF7BDFD00BF72
:104EE00040DFF63E83F00041104670470000E0FFCF
:104EF00043004FEAD30C4FEA3C0C43401FBF40072E
:104F00000CF1605113F0FE4F70471CF0006F03D19D
:104F100000200CF0004170470CF0004343EA507051
:104F200010B540EACC0000F03EF800BF000000924F
:104F30004FEA0001FFF7DEBD4FF000414FF00000E7
:104F4000A1F5002170474FF07E5209E011F00042B8
:104F500004D54042C1F1000138BF491E42F07E52E3
:104F60000B0002F1706212BF20235FEA000170475C
:104F7000B1FA81FCA3EB0C0301FA0CF120FA03FC5B
:104F800002EBC352C3F1200341EA0C0110FA03FC07
:104F90005CEA416C42EB112018BF5FF0806C28BFC7
:104FA00020F0010070470EF1020E2EF0030E5EF8A5
:104FB000044B244204D44FEA4102B2F17F4F11D88E
:104FC0004FEA4003B3F17F4F0CD80ED14FEAD07CAB
:104FD000B2F17F4F0CEB4C0C0CF1020C08BF4CEB08
:104FE000D17C04E04FF0080C01E04FEAD17C0CEBDF
:104FF0004C0324FA03F404F00704B4F1040C06D2C1
:105000000EEB840CBDE810404CF0010C6047DFE86B
:105010000CF0070802024FF00040A0F5800010BD20
:105020000846420018BFD2F1807288BF00F00040ED
:1050300010BD4FF04070E1EE100A7047FF2141EAC9
:10504000D050C00570470CF00F03092B08BF082093
:1050500000F059800A2B0BD0082B18BF704708BFEF
:105060001CF0400F0AD04FF000004FF000017047D5
:105070001CF0400F18BF4FF0004070471CF0100F9D
:1050800008D020F0704300F07F4242EAD3014FEA9B
:105090004370704700F0604021F07F4242EA000216
:1050A00001F07F4040EA727070474FF0FF0C4CF403
:1050B000E06C1CEA11531CBF9CEA030C9445C2BF70
:1050C000DA4201EB02517047002B0DD0BCF1000F0A
:1050D0000FD0002A01F00041A4BF41F0E04141F0AF
:1050E0007F614FF00000704701F000414FF0000079
:1050F000704750EA01334FF09B0C18BF4CF0806CA6
:105100007FF4EEA970471CF4801F11D01CF4E02F2F
:1051100003D06FEACC31490070474FF04050EFF3B5
:10512000008222F0704242EA000282F30088704757
:105130004FF0000070470000000000000000F03F4A
:10514000000000000000F83F000000000000000028
:105150000000004003B8E23F000000000000000033
:1051600006D0CF43EBFD4C3E033333333333E33FC1
:10517000FFAB6FDBB66DDB3F4D268F515555D53FED
:1051800001411DA96074D13F65DBC9934A86CD3FBB
:10519000EF4E454A287ECA3F3E5555555555C53FA9
:1051A00093BDBE166CC166BF2CDE25AF6A56113F9B
:1051B000F16BD2C541BDBBBED0A4BE726937663E9D
:1051C0000000000000000000E8510008000000207E
:1051D0005C000000D0010008445200085C00002080
:1051E000FC0F0000EC0100080000000000000000BF
:1051F00000000000000000000000000000000000AF
:10520000000000000000000000000000000000009E
:10521000000000000000000000000000000000008E
:10522000000000000102030401020304060708094C
:1052300000BD0105000000000000000001020304A1
:04524000060708094C
:040000050800019559
:00000001FF
