:020000040800F2
:10000000F80F002059020008E9040008EB0400087A
:10001000ED040008EF040008F104000800000000EF
:10002000000000000000000000000000F3040008D1
:10003000F504000800000000F7040008F9040008B7
:1000400073020008730200087302000873020008BC
:10005000730200087302000873020008FB04000822
:100060007302000873020008730200089D0900086B
:100070007302000873020008C30800087302000836
:1000800073020008730200087302000800000000F9
:1000900000000000000000000000000073020008E3
:1000A000730200087302000873020008730200085C
:1000B0007302000867050008730200087302000855
:1000C000730200087302000873020008730200083C
:1000D0007302000819050008730200080000000000
:1000E0007302000873020008730200080000000099
:1000F0000000000000000000000000007302000883
:100100000000000073020008730200087302000878
:1001100000000000000000000000000000000000DF
:1001200065090008730200087302000873020008E2
:100130007302000800000000000000000000000042
:100140000000000000000000000000007302000832
:1001500073020008730200087302000873020008AB
:100160007302000873020008000000000000000095
:10017000000000000000000000000000000000007F
:1001800000000000730200080000000000000000F2
:100190007302000800F002F800F04FF80AA090E89F
:1001A000000C82448344AAF10107DA4501D100F032
:1001B00044F8AFF2090EBAE80F0013F0010F18BFB0
:1001C000FB1A43F001031847747600009476000090
:1001D000103A24BF78C878C1FAD8520724BF30C873
:1001E00030C144BF04680C60704700000023002445
:1001F00000250026103A28BF78C1FBD8520728BF37
:1002000030C148BF0B607047662907F04C82002060
:1002100070471FB507F03DFA05F0E6FB040000202B
:10022000002106F0BDFF401C60600020002106F0A8
:10023000A1FFE0601FBD10B510BD05F001FD114626
:10024000FFF7E7FF00F021F905F07AFF03B4FFF7AD
:10025000F2FF03BC06F0E2F909488047094800476D
:10026000FEE7FEE7FEE7FEE7FEE7FEE7FEE7FEE766
:10027000FEE7FEE704480549054A064B70470000C3
:100280005150000895010008F8090020F80F0020DF
:10029000F80B0020F80B0020F8B54FF4A06002F036
:1002A00077FE1D208DF8000001248DF80140002507
:1002B0008DF802508DF80340684602F06EFE38203B
:1002C0008DF8000002268DF801608DF802408DF84F
:1002D0000340684602F061FE0E208DF800008DF8A4
:1002E00001608DF802608DF80340684602F055FE0B
:1002F0000B208DF800008DF8016003268DF8026058
:100300008DF80340684602F048FE25208DF8000075
:100310008DF801608DF802508DF80340684602F0B8
:100320003CFE07208DF800008DF801508DF802503A
:100330008DF80340684602F030FEF8BD7FB501211C
:10034000084603F05EFD0121880303F078FD0024D8
:100350008DF80C4002258DF80F4002A955480295F2
:1003600003F052FB0121002003F0AAFF8DF80440A6
:1003700010208DF8050001208DF8060000956846D4
:1003800003F000F87FBD3EB50121022003F04DFDD2
:100390000120ADF80000002044F25471464CADF845
:1003A00002000191ADF808006946204604F03EF8CD
:1003B0000121204604F0D4FB01221146204604F01E
:1003C000BEFB0121204604F0A9F83EBD10B53B4814
:1003D00001F020FA3A49884205D0384801F022F964
:1003E000364801F060F900F0D9FBC02340F2244206
:1003F0000C214FF4612000F03DFC6421314800F0F5
:10040000A2FC4FF40061304800F0D0FC012000F065
:1004100000FD00F03BFD00F07BFE00F0BBFF142070
:1004200000F0D4FB01F0B9FA01F0F2FB142000F067
:10043000CDFB01F0B4FA01F0CDFB4FF4167000F0E3
:10044000C5FB00BF01F0ADFA0028FBD002211F4818
:1004500000F099FD02211E4800F0DAFE02211D483D
:1004600001F01BF802211C4800F0C2FD02211B48CC
:1004700000F001FF02211A4801F042F8FFF783FF64
:10048000FFF75CFFBDE8104006E7FFF79FFF154C44
:1004900000264FF4006520780128FCD10A4802F0BC
:1004A00073FC2946084804F0C9FF284600F0CCFC3C
:1004B0002670F0E70000024000040040FC08002025
:1004C00055AA55AA95000020F90000202C00002014
:1004D000340000203C0000203000002038000020C4
:1004E00040000020000000207047FEE7FEE7FEE726
:1004F000FEE7704770477047704710B5022002F062
:1005000091FF002807D0FD4901200870BDE8104088
:10051000022002F090BF10BD70B5F94C40F22445A6
:100520002946204604F05EFD00280ED00021F54843
:1005300002F047FE21882046A188F34A012111706C
:100540002946BDE8704004F06CBD70BD10B50023B5
:10055000022204E0845C521C23449BB2D2B28A4241
:10056000F8DBD8B210BD2DE9F047DFF8A0A30121D8
:10057000504604F0F8FA00287DD0E04C607810BBBB
:10058000E348E268B0F900101144E160B0F90210EC
:10059000226911442161B0F904106269114461615A
:1005A000DC49A369B1F900201A44A261B1F9021033
:1005B000E2691144E161B0F90600216A0844206251
:1005C000A088401CA080DFF85083002666700421BC
:1005D000404603F07FFA48F2FF654FF6FF770128A7
:1005E00009D11021404603F08BFACC4805804780A2
:1005F000022000F037FDDFF828934021484603F041
:1006000069FA012809D10103484603F079FAC5487F
:1006100005804780022000F066FE4FF4004140460E
:1006200003F06EFAC0484FF480610180F7214180E9
:10063000022000F09DFF207801287BD12670A06861
:100640001430A06094ED030AA088B8EEC01A00EE42
:10065000100AB8EE400AC1EE000A9FEDB40AB44D8C
:1006600060EE800AC5ED030AD4ED040AB8EEE01A84
:1006700000EE900A00E022E1F8EE601AC1EE210AD5
:1006800060EE800AC5ED040AD4ED050AB8EEE01A62
:1006900000EE900AF8EE601AC1EE210A20EE800A00
:1006A00085ED050A94ED070AF8EEC00A00EE100A7F
:1006B000B8EE401A80EE810ADFED9E0A20EE200A95
:1006C00085ED000A94ED060AB8EEC01A00EE100A95
:1006D000F8EE401A81EE210A20EE200A85ED010A8B
:1006E00094ED080AF8EEC00A00EE100AB8EE401ABF
:1006F00080EE810ADFED900A904F20EE200A85ED12
:10070000020AF86F00287DD1B86F18B9394628461B
:1007100002F0ACFBDFF828C2AB208CF800001220FE
:100720008CF80100B86F0028BCF8020039D020F026
:10073000010000E0BDE0ACF80200D5ED000AF4EEE7
:10074000600AF1EE10FA27D195ED011AB4EE411AC4
:10075000F1EE10FA20D195ED020AB4EE400AF1EE66
:1007600010FA19D110EE901A7648814214DC10EE7E
:10077000902A75498A420FD811EE102A82420BDC6A
:1007800011EE102A8A4207D810EE102A824203DCAA
:1007900010EE100A884207D9BCF8020020F00200CF
:1007A00006E040F00100C4E7BCF8020040F002009F
:1007B000ACF8020095ED030AB4EE400AF1EE10FA2F
:1007C00029D1D5ED041AF4EE611AF1EE10FA22D116
:1007D00095ED051AB4EE411AF1EE10FA1BD110EEA8
:1007E000101A5A48814216DC10EE101A584A9142EB
:1007F00011D811EE901A81420DDC11EE901A91423F
:1008000009D800E048E011EE101A814203DC11EE35
:10081000100A904204D9BCF8020020F0040003E062
:10082000BCF8020040F00400ACF80200A068CCF86C
:10083000040010EE900A2021CCF808006868CCF87B
:100840000C00A868CCF8100010EE100ACCF81400C8
:100850002869CCF818006869CCF81C003848FFF704
:1008600075FEDFF8A0808CF8200021254FF020577E
:1008700008F178083946404602F0F2FC0028F9D029
:100880006421344804F0DAFD2A462D49314804F049
:100890005EFD284600F0BDFAA06844F6206188425B
:1008A00000D3A660E66026616661A661E661266205
:1008B000A6805046BDE8F047012104F060B9BDE8CC
:1008C000F08770B5244C254D2146284602F008FDDE
:1008D000002811D0A914124803F010F920484188CB
:1008E000027801F47F410B480A43214642802846A2
:1008F000BDE8704002F017BD70BD0000040000208C
:10090000001001404064024000000020000400404C
:10091000440000204C000020000002402C00002079
:1009200000040240340000203C0000202F27323910
:100930008009002000007A3C0AD7A33CFC08002074
:100940007400002000009643000096C30000C040E1
:100950000000C0C0950000200080001858600240D0
:100960003800002070B5834C834D2146284602F0A4
:10097000B7FC0028C0D01021804803F0BFF88048A1
:100980004188027801F47F417E480A432146028073
:100990002846BDE8704002F0C6BCADE72DE9F05F27
:1009A000DFF8D0A1DFF8E0B15146584602F098FCDC
:1009B000002870D0754C71484FF40041A2782AB3DA
:1009C000734D744F744E012A31D0022A52D0032A3B
:1009D00062D0042A7ED0052A7DD0062A7CD003F07E
:1009E0008DF828886D8845EA0045284601F014F8FE
:1009F000E9B2884202D1C5F30F20B8800020A07070
:100A000051465846BDE8F05F02F08DBC0D460646E3
:100A100003F074F80222521C052AFCD32946304602
:100A200003F06EF8022000F0A3FD0120E7E78946FD
:100A3000804603F063F80220401C0528FCD3494699
:100A4000404603F05DF828886D8845EA0045284651
:100A500000F0E2FFE9B2884202D1C5F30F20F8802E
:100A60004FF480503080E9207080022000F080FD3B
:100A70000220C4E70D46064603F040F80222521C4D
:100A8000052AFCD32946304603F03AF8022000F04C
:100A90006FFD0320B3E76BE08946804603F02EF834
:100AA0000220401C0528FCD34946404603F028F8A4
:100AB00028886D8845EA0045284600F0ADFFE9B278
:100AC000884202D1C5F30F2038804FF4A050308007
:100AD000EF2002E007E017E039E07080022000F02C
:100AE00047FD04208BE70D46064603F007F8022277
:100AF000521C052AFCD32946304603F001F8022097
:100B000000F036FD05207AE78946804602F0F6FFC0
:100B10000220401C0528FCD34946404602F0F0FF65
:100B200028886D8845EA0045284600F075FFE9B23F
:100B3000884202D1C5F30F2078804FF4C050308036
:100B4000E5207080022000F013FD062057E70D46D7
:100B5000064602F0D3FF0222521C052AFCD3294686
:100B6000304602F0CDFF022000F002FD072046E7EC
:100B7000BDE8F09F20800010106402400000024099
:100B8000300000204C0000201060024004000020D3
:100B900040000020440000203C00002010B56FF011
:100BA000040002F039FA4FF0E020016921F0010160
:100BB00001612D4801682D48B1FBF0F22C4802700C
:100BC0004FF4FA52B1FBF2F1418010BD2849498837
:100BD00048434FF0E021486100228A61086940F0F3
:100BE000010008610869C30701D0C003FAD508698C
:100BF00020F0010008618A6170471D490978484367
:100C00004FF0E021486100228A61086940F001004C
:100C100008610869C30701D0C003FAD5086920F04C
:100C2000010008618A6170474FF0E0206FF07F415A
:100C3000416100218161016941F001010161704759
:100C40004FF0E020016921F00101016180696FF03E
:100C50007F41081A00EE100AB2EE051AF8EE400ABB
:100C600080EE810A704700006000002000127A00C8
:100C7000280000202DE9F04389468046012187B0F5
:100C80001D461646084603F0BCF80121084603F04D
:100C9000B8F80121102003F0D2F8794F072209217A
:100CA000384602F03AFF07220A21384602F035FFA3
:100CB0007815009003208DF8050002208DF80400BF
:100CC00000248DF8064001208DF80700694638465B
:100CD00002F09AFE381500906946384602F094FEFC
:100CE000ADF80C40ADF80E40ADF81040ADF8144032
:100CF000644CCDF80880ADF8129002A9204604F0AB
:100D00003AF8802D04D0402D05D0C02D15D007E035
:100D10000122802101E001224021204604F038F91F
:100D200026B101223146204604F03AF9012120463D
:100D300004F097F807B0BDE8F08301228021204637
:100D400004F026F9E7E770B50D460646012190B09C
:100D5000880503F056F84C4C204602F071F9204605
:100D600002F073FA0028FAD14FF000600090454875
:100D70000021001DCDE901064020CDE90305000159
:100D8000CDE90510079180010891CDE909100320F4
:100D9000CDE90B100D910E916946204602F0D8F96D
:100DA0000021204602F00DFA10B070BD70B50D465E
:100DB0000646012190B0880503F023F8324C783CB8
:100DC000204602F03DF9204602F03FFA0028FAD111
:100DD0004FF00060009000222A48CDE90325001D55
:100DE000CDE901060015CDE905208010CDE90820E8
:100DF0000002CDE90A0207920320CDE90C02694600
:100E000020460E9202F0A4F90121204602F0D9F901
:100E1000CAE770B51C4C05464FF02051204602F041
:100E200034FA0021204602F0CCF9204602F00DFAF7
:100E30000028FAD12946204602F0E1F92046BDE813
:100E40007040012102F0BDB970B50F4C0546783CE9
:100E50004FF08151204602F018FA0021204602F09E
:100E6000B0F9204602F0F1F90028FAD129462046CF
:100E700002F0C5F92046BDE87040012102F0A1B999
:100E80000000024000100140B8640240F0B50121AA
:100E900087B0084602F0B5FF0121084602F0B1FF15
:100EA0000121084602F0ADFF0121084602F0A9FF2A
:100EB0000121080302F0C3FF914F05221146384675
:100EC00002F02BFE05220621384602F026FE0522FE
:100ED0000721384602F021FE2020009003208DF8E3
:100EE000050002268DF8046000248DF806400125D7
:100EF0008DF807506946384602F086FD4020009084
:100F00006946384602F080FD8020009069463846E8
:100F100002F07AFD102000908DF8045069463846A2
:100F200002F072FD1021384602F0E8FDADF80840ED
:100F30004FF48270ADF80A00E802ADF80C00ADF88D
:100F400010508010ADF812001820ADF81400ADF864
:100F5000164007206B4CADF81800ADF80E6002A9E2
:100F6000204603F03FF801220221204603F04BF90E
:100F700001221146204603F046F90121204603F0E4
:100F8000C3F807B0F0BD70B50D460646012190B01C
:100F9000880502F036FF5C4C204602F051F82046EE
:100FA00002F053F90028FAD14FF0C0600090554884
:100FB00000210C30CDE901064020CDE903050001F8
:100FC000CDE90510400007908000CDE9080100013F
:100FD000CDE90A010320CDE90C010E9169462046B6
:100FE00002F0B6F80021204602F0EBF810B070BD18
:100FF00070B50D460646012190B0880502F001FF4C
:10100000414C483C204602F01BF8204602F01DF9F6
:101010000028FAD14FF0C060009000223948CDE995
:1010200003250C30CDE901060015CDE9052040006F
:10103000079080000890401109904002CDE90A0213
:101040000320CDE90C02694620460E9202F080F89A
:1010500001221021204602F029F90121204602F048
:10106000B0F8C3E770B5284C05464FF0C051204694
:1010700002F00BF90021204602F0A3F8204602F00E
:10108000E4F80028FAD12946204602F0B8F82046B4
:10109000BDE87040012102F094B870B51A4C0546C5
:1010A000483C1A49204602F0F0F80021204602F0A0
:1010B00088F8204602F0C9F80028FAD129462046CF
:1010C00002F09DF82046BDE87040012102F079B899
:1010D00070B50C4C05460221204603F0A8F8002804
:1010E000F9D02946204603F075F80121204603F087
:1010F0009EF80028F9D02046BDE8704003F068B89B
:1011000000000240003001405864024020000010FE
:101110002DE9F04188B00121022002F072FE012188
:10112000022002F06EFE0121022002F06AFE01217F
:10113000022002F066FE01218F03384602F075FEA0
:10114000DFF8408205220D21404602F0E6FC052230
:101150000E21404602F0E1FC05220F21404602F03C
:10116000DCFC7810009003208DF8050002268DF835
:10117000046000248DF8064001258DF8075069466B
:10118000404602F041FC69464046009702F03CFCB4
:10119000E80300906946404602F036FC2F030097B2
:1011A0008DF804506946404602F02EFC3946404610
:1011B00002F0A4FCADF808404FF48270ADF80A00CC
:1011C000E802ADF80C00ADF810508010ADF8120038
:1011D0001020ADF81400ADF8164007206A4CADF8A9
:1011E0001800ADF80E6002A9204602F0FBFE0122B5
:1011F0000221204603F007F801221146204603F0A1
:1012000002F80121204602F07FFF08B0BDE8F0811E
:1012100070B50D460646012190B0480502F0F1FD7B
:101220005A4C204601F00CFF204602F00EF8002830
:10123000FAD1554800220C30CDE90020029640201A
:10124000CDE903050001CDE90520400007908000AD
:10125000CDE908020001CDE90A020320CDE90C0224
:10126000694620460E9201F073FF0021204601F0EE
:10127000A8FF10B070BD70B50D460646012190B0B4
:10128000480502F0BEFD414C183C204601F0D8FE56
:10129000204601F0DAFF0028FAD13B4800220C304A
:1012A000CDE900200296CDE903250015CDE9052002
:1012B0004000079080000890401109904002CDE95D
:1012C0000A020320CDE90C02694620460E9201F085
:1012D0003FFF01221021204601F0E8FF01212046B6
:1012E00001F06FFFC5E770B5284C05462849204638
:1012F00001F0CBFF0021204601F063FF204601F002
:10130000A4FF0028FAD12946204601F078FF2046A4
:10131000BDE87040012101F054BF70B51B4C05467B
:10132000183C4FF0C051204601F0AFFF002120468D
:1013300001F047FF204601F088FF0028FAD1294636
:10134000204601F05CFF2046BDE87040012101F01D
:1013500038BF70B50C4C05460221204602F067FFED
:101360000028F9D02946204602F034FF012120460A
:1013700002F05DFF0028F9D02046BDE8704002F081
:1013800027BF0000000402400038004070600240A7
:10139000200000202DE9F04387B00121022002F057
:1013A00030FD0121022002F02CFD0121022002F07B
:1013B00028FD0121084602F024FD0121CE0330461C
:1013C00002F033FDDFF8449206220321484602F082
:1013D000A4FB06220421484602F09FFB06220521B9
:1013E000484602F09AFB0820009003208DF8050083
:1013F00002278DF8047000248DF8064001258DF831
:1014000007506946484602F0FFFA4FF01008694657
:101410004846CDF8008002F0F7FA20200090694697
:10142000484602F0F1FADFF8E89100968DF8045092
:101430006946484602F0E8FA3146484602F05EFB4B
:10144000ADF808404FF48270ADF80A00E802ADF83C
:101450000C00ADF810508010ADF81480ADF81200FB
:10146000ADF8164007206B4CADF81800ADF80E70C3
:1014700002A9204602F0B6FD01220221204602F018
:10148000C2FE01221146204602F0BDFE0121204687
:1014900002F03AFE07B0BDE8F08370B50D4606468F
:1014A000012190B0480502F0ACFC5B4C204601F0F5
:1014B000C7FD204601F0C9FE0028FAD15548002298
:1014C0000C30CDE9002002964020CDE90305000153
:1014D000CDE90520400007908000CDE90802000119
:1014E000CDE90A020320CDE90C02694620460E929E
:1014F00001F02EFE0021204601F063FE10B070BD09
:1015000070B50D460646012190B0480502F079FC01
:10151000414C783C204601F093FD204601F095FEB9
:101520000028FAD13B4800220C30CDE90020029679
:10153000CDE903250015CDE9052040000790800086
:101540000890401109904002CDE90A020320CDE93C
:101550000C02694620460E9201F0FAFD012210218C
:10156000204601F0A3FE0121204601F02AFEC5E736
:1015700070B5294C05462949204601F086FE002118
:10158000204601F01EFE204601F05FFE0028FAD141
:101590002946204601F033FE2046BDE87040012177
:1015A00001F00FBE70B51C4C0546783C1C49204626
:1015B00001F06BFE0021204601F003FE204601F001
:1015C00044FE0028FAD12946204601F018FE2046A4
:1015D000BDE87040012101F0F4BD70B50D4C054629
:1015E0000221204602F023FE0028F9D02946204699
:1015F00002F0F0FD0121204602F019FE0028F9D08A
:101600002046BDE8704002F0E3BD00000004024047
:1016100000000240003C00408860024000080020BA
:10162000200000109FEDBE0A00F1080180ED000AC5
:1016300080ED010AF7EE000A81EC020A1C31C0EDD0
:10164000040AC0ED050AC0ED060A80ED070A80ED28
:10165000080A00F1700281EC020A103180ED0B0AD9
:1016600080ED0C0A81EC020A103180ED0F0A80ED4A
:10167000100A81EC020A1C31C0ED130AC0ED140AF5
:10168000C0ED150A80ED160A80ED170A81EC020AFA
:10169000002180ED1A0A80ED1B0A82EC020A8167A4
:1016A000C0F88010704710B5044601F0FDFE002020
:1016B00001F0E3FE0221282001F035FF99499A4804
:1016C00002F009F898482168001D02F004F89648D5
:1016D0006168083001F0FFFF9348A1680C3001F009
:1016E000FAFF9148E168103001F0F5FF8E4821695A
:1016F000143001F0F0FF8C486169183001F0EBFF05
:101700008948A1691C3001F0E6FF8748E169203073
:1017100001F0E1FF8448216A243001F0DCFF8248B7
:10172000616A283001F0D7FF7F48A16A2C3001F0B0
:10173000D2FF7D48E16A303001F0CDFF7A48216B5D
:10174000343001F0C8FF7848616B383001F0C3FFD6
:101750007548A16B3C3001F0BEFF7348E16B40302F
:1017600001F0B9FF7048216C443001F0B4FF6E48BD
:10177000616C483001F0AFFF6B48A16C4C3001F058
:10178000AAFF6948E16C503001F0A5FF6648216D61
:10179000543001F0A0FF6448616D583001F09BFFA8
:1017A0006148A16D5C3001F096FF5F48E16D6030EB
:1017B00001F091FF5C48216E643001F08CFF5A48C3
:1017C000616E683001F087FF5748A16E6C3001F000
:1017D00082FF5548E16E703001F07DFF5248216F65
:1017E000743001F078FF5048616F783001F073FF7A
:1017F0004D48A16F7C3001F06EFF4B48D4F880104B
:10180000803001F068FF012001F037FEBDE8104094
:1018100001F056BE44490968434A121D126802602D
:10182000414A0832126842603F4A0C3212688260B4
:101830003D4A10321268C2603B4A1432126802619B
:10184000394A183212684261374A1C321268826182
:10185000354A20321268C261334A24321268026269
:10186000314A2832126842622F4A2C321268826250
:101870002D4A30321268C2622B4A34321268026337
:10188000294A383212684263274A3C32126882631E
:10189000254A40321268C263234A44321268026405
:1018A000214A4832126842641F4A4C3212688264EC
:1018B0001D4A50321268C2641B4A543212680265D3
:1018C000194A583212684265174A5C3212688265BA
:1018D000154A60321268C265134A643212680266A1
:1018E000114A6832126842660F4A6C321268826688
:1018F0000D4A70321268C2660B4A7432126802676F
:10190000094A783212684267074A7C321268826755
:10191000054A80321268C0F88020084670470000EF
:101920000000000055AA55AA000002082DE9F04168
:1019300004460120401C0528FCD3404D4FF40046CE
:101940003146284602F0DCF8270C3846FFF745FE02
:10195000A0B2FFF742FE3146284602F0CFF802203F
:10196000401C0528FCD33146284602F0C9F8384609
:10197000FFF733FE0704A0B2FFF72FFE40EA07048B
:101980003146284602F0BAF80220401C0528FCD354
:10199000C4F30F2000B2BDE8F0812948C6E729480A
:1019A000C4E710B52848FFF7C1FF80B24CF23F01F1
:1019B00081430DD12548FFF7B9FF2549B1EBC05F41
:1019C00006D12448FFF7B2FF80B24F21814301D0F6
:1019D000002010BD012010BD10B504461E48FFF7C1
:1019E000A5FF20801D48FFF7A1FF60801C48FFF77E
:1019F0009DFFA0801B48FFF799FFE08010BD01F01C
:101A00008002012801D182F080024806000E002ADF
:101A100001D080F01D00704710B5FF2104461F2340
:101A200024FA03F000F00100FFF7E9FF5B1EDBB2D0
:101A30000146072BF4D8C043C0B210BD00000240DD
:101A4000310400D8060020FCC7000024CD00002887
:101A5000000080FFD300003CE9000010EF000014FC
:101A6000E5000018F700000470B540F08004002085
:101A7000401C80B20528FBD3834D1021284602F07C
:101A80003FF8FF2040EA0420FFF722FB0446102124
:101A9000284602F033F80021491C89B20529FBD3FE
:101AA000E0B270BD70B50C4605460022521CD2B2A1
:101AB000052AFBD3744E1021304602F021F844EA87
:101AC0000520FFF705FB1021304602F017F8002033
:101AD000401CC0B20528FBD370BD70B540F0800437
:101AE0000020401C80B20528FBD3684E4FF480557F
:101AF0002946304602F004F8FF2040EA0420FFF7B0
:101B000028FC04462946304601F0F8FF0021491C14
:101B100089B20529FBD3E0B270BD2DE9F0410C4636
:101B200005460022521CD2B2052AFBD3574F4FF470
:101B300080563146384601F0E3FF44EA0520FFF7BE
:101B400008FC3146384601F0D9FF0020401CC0B2E5
:101B50000528FBD3BDE8F0811CB50121084602F041
:101B600050F90420009000208DF804008DF8060044
:101B700001208DF807006946434801F045FF1CBD70
:101B80001CB50121022002F03CF940200090002009
:101B90008DF804008DF8060001208DF807006946D5
:101BA0003A4801F031FF1CBD10B50C4601460F202C
:101BB000FFF778FF2146BDE81040102072E710B50E
:101BC0000C4601460F20FFF7A8FF2146BDE8104054
:101BD0001020A2E710B5FFF7BFFFFFF7D1FF80216C
:101BE0001520FFF75FFF80211520FFF796FF0121E9
:101BF0001820FFF757FF01211820FFF78EFF032160
:101C00000220FFF7D1FF0321BDE810400220D6E7F4
:101C100010B5B6211420FFF745FFB621BDE81040EE
:101C200014207AE710B504460620FFF71DFF208038
:101C30000720FFF719FF218841EA002020800620B5
:101C4000FFF74BFF60800720FFF747FF618841EAFD
:101C50000020608010BDB0F9002000EE102AF8EEE0
:101C6000C00A9FED0B0A60EE800A10EE902A0A600F
:101C7000B0F9020000EE900AF8EEE00A20EE800AC9
:101C800010EE100A48607047000002400004024055
:101C900000007A3C2DE9F041FE4F0C4605464FF01E
:101CA00020563146384601F0DBFA0028F9D064218D
:101CB000F94803F0C3FB0022F74803E0A95C815414
:101CC000521C92B2A242F9D32046BDE8F041FFF780
:101CD000A0B81521F1A0DDE71321F6A0DAE770B571
:101CE000054601461322F8A003F005FBFB4C40B16A
:101CF00014222946FAA003F0FEFA38B1BDE870407C
:101D0000E7E7FFF7E9FF0020E06770BD0120E0672B
:101D1000BDE87040E0E710B5F048FFF783FCEF48FE
:101D2000FFF7C1FCBDE81040D6E710B5EB48FFF760
:101D3000BAFCBDE81040CFE738B500221346009248
:101D40000C226D4604E0521CEC545B1CD2B2DBB298
:101D5000845C2A2CF7D19DF800009DF80120000634
:101D600040EA02409DF8022040EA02209DF803204C
:101D700010430860FFF7B0FF38BD70B50C4605464C
:101D800001461122DCA003F0B6FA40B11322294625
:101D9000DEA003F0B0FA30B1BDE8704099E7FFF77C
:101DA0009BFF002002E0FFF797FF0120206070BD3D
:101DB000F0B597B00C46064615465C21684603F020
:101DC0005FFB0022114614206F460FE02C2B08D039
:101DD000C2EB021C07EB4C0C0CF80130491CC9B2D9
:101DE00002E0521CD2B20021401CC0B2335C2A2B4C
:101DF000ECD1384607F11E063C373DB1012D1DD010
:101E0000022D33D0FFF765FF17B0F0BD05F054F891
:101E100051EC100B05F0DAF9A061304605F04CF8F2
:101E200051EC100B05F0D2F9E061384605F044F8AA
:101E300051EC100B05F0CAF920622EE005F03CF8D9
:101E400051EC100B05F0C2F96062304605F034F831
:101E500051EC100B05F0BAF9A062384605F02CF8E9
:101E600051EC100B05F0B2F9E06216E005F024F831
:101E700051EC100B05F0AAF92063304605F01CF870
:101E800051EC100B05F0A2F96063384605F014F828
:101E900051EC100B05F09AF9A063FFF71DFFB3E7B3
:101EA000F0B597B00C4605465C21684603F0E8FAA9
:101EB0000020024612236E460EE02C2907D0C0EB0C
:101EC000001706EB4707B954521CD2B202E0401C7F
:101ED000C0B200225B1CDBB2E95C2A29EDD130469E
:101EE00004F0EAFF51EC100B05F070F920600DF1E1
:101EF0001E0004F0E1FF51EC100B05F067F9606083
:101F00000FA804F0D9FF51EC100B05F05FF9A060A9
:101F1000FFF7E2FE78E7F0B597B00C4605465C2186
:101F2000684603F0ADFA0020024612236E460EE02A
:101F30002C2907D0C0EB001706EB4707B954521CF9
:101F4000D2B202E0401CC0B200225B1CDBB2E95CF2
:101F50002A29EDD1304604F0AFFF51EC100B05F00B
:101F600035F9E0600DF11E0004F0A6FF51EC100BF6
:101F700005F02CF920610FA804F09EFF51EC100B26
:101F800005F024F96061FFF7A7FE3DE7F0B597B0D3
:101F90000C46064615465C21684603F071FA00229D
:101FA000114615206F460FE02C2B08D0C2EB021C07
:101FB00007EB4C0C0CF80130491CC9B202E0521C72
:101FC000D2B20021401CC0B2335C2A2BECD138467F
:101FD00007F11E063C3735B1012D1CD0022D32D041
:101FE000FFF777FE10E704F067FF51EC100B05F0E8
:101FF000EDF86065304604F05FFF51EC100B05F022
:10200000E5F8A065384604F057FF51EC100B05F0D9
:10201000DDF8E0652EE004F04FFF51EC100B05F009
:10202000D5F82066304604F047FF51EC100B05F060
:10203000CDF86066384604F03FFF51EC100B05F018
:10204000C5F8A06616E004F037FF51EC100B05F060
:10205000BDF8E066304604F02FFF51EC100B05F0A0
:10206000B5F82067384604F027FF51EC100B05F057
:10207000ADF86067FFF730FEC6E6F0B597B00C46E6
:1020800005465C21684603F0FBF900200246122356
:102090006E4654E0B86402409500002024636D64ED
:1020A0002C4261642C436F6D6D616E642A66660D0F
:1020B0000A00000024636D642C436F6E6669672C10
:1020C0004F4B2A66660D0A0024636D642C646174AC
:1020D000615F75706C6F61642C6F6E00FC0800208E
:1020E00024636D642C646174615F75706C6F6164EE
:1020F0002C6F66660000000024636D642C736574A9
:102100002C6D6F64652C6E617600000024636D6435
:102110002C7365742C6D6F64652C696D7562640039
:102120002C2907D0C0EB001706EB4707B954521C07
:10213000D2B202E0401CC0B200225B1CDBB2E95C00
:102140002A29EDD1304604F0B7FE51EC100B05F012
:102150003DF8E0630DF11E0004F0AEFE51EC100BF3
:1021600005F034F820640FA804F0A6FE51EC100B23
:1021700005F02CF86064FFF7AFFD45E6F0B597B0C9
:102180000C4605465C21684603F07AF900200246B9
:1021900012236E460EE02C2907D0C0EB001706EB89
:1021A0004707B954521CD2B202E0401CC0B2002210
:1021B0005B1CDBB2E95C2A29EDD1304604F07CFEE1
:1021C00051EC100B05F002F8A0640DF11E0004F0B4
:1021D00073FE51EC100B04F0F9FFE0640FA804F05B
:1021E0006BFE51EC100B04F0F1FF2065FFF774FD5E
:1021F0000AE610B5044601461222E7A003F07BF878
:1022000000284BD012222146E8A003F074F80028E1
:1022100049D015222146EAA003F06DF8002847D0E6
:1022200015222146ECA003F066F8002842D01522C2
:102230002146EFA003F05FF800283DD0122221468E
:10224000F1A003F058F800283CD012222146F3A058
:1022500003F051F800283AD014222146F4A003F0EC
:102260004AF800283BD014222146F7A003F043F897
:1022700090B314222146FAA003F03DF868B30E2271
:102280002146FDA003F037F840B30C222146FEA002
:1022900003F031F898B3BDE810401AE52046BDE8D8
:1022A0001040FD496AE72046BDE81040FA49E4E6DF
:1022B000002202E0012200E002222046BDE8104098
:1022C000F54963E62046BDE81040F34923E6204681
:1022D000BDE81040F049E3E503E004E009E0002236
:1022E00002E0012200E002222046BDE81040EA4957
:1022F0005EE5E9492046BDE8104078313DE5FFE75D
:10230000E5492046BDE81040803115E530B5002292
:1023100001234C1E03E0C55C6A405B1C9BB2A342D8
:10232000F9DB13090A2B01D2303300E0373302F016
:102330000F02DBB20A2A01D2303200E037324354B6
:102340000844427030BD30B589B00446202168464B
:1023500003F096F80B22D1A1684603F03DF82C203B
:102360008DF80B00200E8DF80C00200C8DF80D0060
:10237000200A8DF80E002A208DF810000D258DF80A
:102380000F4011216846FFF7C1FF0A208DF81400A5
:102390008DF8135015216846FFF77CFC09B030BD5D
:1023A00030B589B004462021684603F069F8DCB1F5
:1023B0001322AFF2A821684603F00EF813242A2056
:1023C0000DF804006D46641C21462846FFF79EFF69
:1023D000A41C0D202855641C0A202855641CE1B259
:1023E0006846FFF757FCD9E71122AFF2F42168469F
:1023F00002F0F2FF1124E2E72DE9F047A4B00E4607
:102400000446002520211CA803F03AF86421684600
:1024100003F036F8002019901A901B9046B1012E57
:1024200017D0022E63D0FFF754FC24B0BDE8F0872C
:1024300013229DA1684602F0CFFF94ED060A1320F7
:102440008DED190A94ED070A8DED1A0A94ED080A2C
:102450000FE0132299A1684602F0BEFF94ED090A2D
:1024600013208DED190A94ED0A0A8DED1A0A94EDE8
:102470000B0A03248DED1B0AE8460DF164094FF0A9
:102480002C0A00BF08F800A0401CC6B259F825006D
:1024900005F08EF841EC100B8DA153EC102B1CA80D
:1024A00002F08CFEC7B208EB06003A461CA902F007
:1024B0004EFFF0196D1CEDB2C0B2A542E2D32A2145
:1024C00008F80010401CC5B2444629466846FFF78C
:1024D0001DFFAD1CE8B20D212154401CC0B20A21E1
:1024E0002154401CC1B26846FFF7D4FB9DE713227C
:1024F00079A1684602F070FF94ED0C0A13208DED6F
:10250000190A94ED0D0A8DED1A0A94ED0E0AB0E742
:102510002DE9F047A4B004460025202119A802F0B7
:10252000AFFF6421684602F0ABFF002021902290AB
:10253000239011226DA1684602F04EFF94ED000A2F
:1025400011218DED210A94ED010A4FF003088DED64
:10255000220A94ED020A6C468DED230A0DF18409DE
:102560004FF02C0A04F801A0491CCEB259F82500FE
:1025700005F01EF841EC100B55A153EC102B19A8D7
:1025800002F01CFEC7B2A0193A4619A902F0DFFEFC
:10259000F019C1B26D1CB3E024636D642C736574D3
:1025A0002C6779726F2C6B67732C000024636D6449
:1025B0002C7365742C6779726F2C6B677A2C000012
:1025C00024636D642C7365742C6779726F2C677942
:1025D000726F6E302C00000024636D642C73657480
:1025E0002C6779726F2C6779726F6E312C00000046
:1025F00024636D642C7365742C6779726F2C677912
:10260000726F6E322C00000024636D642C7365744D
:102610002C616363652C6B61732C000024636D6413
:102620002C7365742C616363652C6B617A2C0000DC
:1026300024636D642C7365742C616363652C616322
:10264000636E302C0000000024636D642C7365748D
:102650002C616363652C6163636E312C00000000A4
:1026600024636D642C7365742C616363652C6163F2
:10267000636E322C0000000024636D642C7365745B
:102680002C6D6F64652C000024636D642C7365747D
:102690002C69642C00000000FC08002024636D6499
:1026A0002C7365742C69640024636D642C736574E9
:1026B0002C616363652C6163636E300024636D6419
:1026C0002C7365742C616363652C6163636E3100E8
:1026D000252E37660000000024636D642C7365743A
:1026E0002C616363652C6163636E320024636D64E7
:1026F0002C7365742C616363652C6B617A00000038
:10270000EDB24545FFF42EAF2A206054491CCDB2EE
:1027100029466846FFF7FAFDAD1CE8B20D212154A9
:10272000401CC0B20A212154401CC1B26846FFF7C8
:10273000B1FA7AE62DE9F047A4B00446002520213D
:1027400019A802F09DFE6421684602F099FE00205F
:102750002190229023901122FBA1684602F03CFEBA
:1027600094ED030A11218DED210A94ED040A4FF036
:1027700003088DED220A94ED050A6C468DED230ABF
:102780000DF184094FF02C0A04F801A0491CCEB2C7
:1027900059F8250004F00CFF41EC100B53EC102B02
:1027A000AFF2D40119A802F009FDC7B2A0193A4648
:1027B00019A902F0CCFDF0196D1CEDB2C1B245456E
:1027C000E2D32A206054491CCDB229466846FFF75F
:1027D0009DFDAD1CE8B20D212154401CC0B20A2160
:1027E0002154401CC1B26846FFF754FA1DE62DE99A
:1027F000F047A4B00E460446002520211CA802F094
:102800003FFE6421684602F03BFE002019901A90BA
:102810001B9036B1012E15D0022E61D0FFF759FA68
:1028200003E61422CDA1684602F0D6FD94ED150A08
:1028300014208DED190A94ED160A8DED1A0A94ED07
:10284000170A0FE01422CBA1684602F0C5FD94EDF3
:10285000180A14208DED190A94ED190A8DED1A0A43
:1028600094ED1A0A03248DED1B0AE8460DF1640964
:102870004FF02C0A08F800A0401CC6B259F82500F9
:1028800004F096FE41EC100B53EC102BAFF2C0118C
:102890001CA802F093FCC7B208EB06003A461CA93C
:1028A00002F055FDF0196D1CEDB2C0B2A542E1D3A6
:1028B0002A2108F80010401CC5B244462946684643
:1028C000FFF724FDAD1CE8B20D212154401CC0B21D
:1028D0000A212154401CC1B26846FFF7DBF9A4E588
:1028E0001422AAA1684602F077FD94ED1B0A142079
:1028F0008DED190A94ED1C0A8DED1A0A94ED1D0A4E
:10290000B0E72DE9F047A4B004460025202119A81E
:1029100002F0B6FD6421684602F0B2FD002021906D
:102920002290239011229FA1684602F055FD94ED5C
:102930000F0A11218DED210A94ED100A4FF00308C2
:102940008DED220A94ED110A6C468DED230A0DF1EE
:1029500084094FF02C0A00BF04F801A0491CCEB234
:1029600059F8250004F024FE41EC100B53EC102B19
:10297000AFF2A42119A802F021FCC7B2A0193A466F
:1029800019A902F0E4FCF0196D1CEDB2C1B2454585
:10299000E2D32A206054491CCDB229466846FFF78D
:1029A000B5FCAD1CE8B20D212154401CC0B20A2177
:1029B0002154401CC1B26846FFF76CF935E52DE99A
:1029C000F047A4B004460025202119A802F058FDC4
:1029D0006421684602F054FD00202190229023904B
:1029E000112275A1684602F0F7FC94ED120A11213C
:1029F0008DED210A94ED130A4FF003088DED220AA4
:102A000094ED140A6C468DED230A0DF184094FF004
:102A10002C0A00BF04F801A0491CCEB259F82500C9
:102A200004F0C6FD41EC100B53EC102BAFF26031FB
:102A300019A802F0C3FBC7B2A0193A4619A902F0BF
:102A400086FCF0196D1CEDB2C1B24545E2D32A20D7
:102A50006054491CCDB229466846FFF757FCAD1CAF
:102A6000E8B20D212154401CC0B20A212154401C5F
:102A7000C1B26846FFF70EF9D7E470B505460146C6
:102A8000112252A002F037FC00284DD01122294615
:102A900053A002F030FC00284DD01422294655A046
:102AA00002F029FC002848D01422294657A002F041
:102AB00022FC002842D0142229465AA002F01BFC16
:102AC00000283CD0112229465CA002F014FC00280A
:102AD00036D0112229465EA002F00DFC002830D02D
:102AE000132229465FA002F006FC00282AD01322F8
:102AF000294661A002F0FFFBD0B11322294663A052
:102B000002F0F9FBA8B10D22294665A002F0F3FB03
:102B1000674C78B10B22294666A002F0ECFB58B155
:102B2000BDE87040FFF7D5B8BDE87040604846E7A3
:102B3000DDE0DEE0E3E0C3E0E6E0C5E0C6E0C7E0FC
:102B4000CBE0CEE0D1E0000024636D642C736574AB
:102B50002C616363652C6B617300000024636D64FA
:102B60002C7365742C6779726F2C6779726F6E3075
:102B70000000000024636D642C7365742C67797207
:102B80006F2C6779726F6E310000000024636D64F2
:102B90002C7365742C6779726F2C6779726F6E3243
:102BA0000000000024636D642C7365742C677972D7
:102BB0006F2C6B677A00000024636D642C7365745E
:102BC0002C6779726F2C6B677300000024636D644F
:102BD0002C6765742C6779726F2C6B67730000002B
:102BE00024636D642C6765742C6779726F2C6B6736
:102BF0007A00000024636D642C6765742C67797219
:102C00006F2C6779726F6E300000000024636D6472
:102C10002C6765742C6779726F2C6779726F6E31CF
:102C20000000000024636D642C6765742C67797262
:102C30006F2C6779726F6E320000000024636D6440
:102C40002C6765742C616363652C6B6173000000F5
:102C500024636D642C6765742C616363652C6B6100
:102C60007A00000024636D642C6765742C616363D3
:102C7000652C6163636E300024636D642C6765743A
:102C80002C616363652C6163636E310024636D6442
:102C90002C6765742C616363652C6163636E32001D
:102CA00024636D642C6765742C6D6F64650000008F
:102CB000FC08002024636D642C6765742C69640033
:102CC000BDE8704056481CE6002102E0012100E00A
:102CD0000221BDE87040524889E5BDE87040504887
:102CE00028E5BDE870404E4812E4002102E00121D1
:102CF00000E00221BDE870404948FFF77DBBA06FAE
:102D0000BDE87040FFF74CBBD4F88000BDE87040D0
:102D1000FFF719BB10B504460146092241A002F095
:102D2000EAFAD8B10922214641A002F0E4FAC8B17A
:102D30000922214641A002F0DEFAC0B10A22214652
:102D400041A002F0D8FAB0B11122214641A002F010
:102D5000D2FAA0B1BDE81040FEF7BBBF2046BDE8E7
:102D600010408AE62046BDE81040FFF742BABDE8B1
:102D70001040FEF7DABFBDE81040FEF7CCBF20469A
:102D8000BDE81040FEF7ABBF2DE9F04700248046B8
:102D90009AB025462646A146334800F032FAC0F5DF
:102DA000006087B237E000BF18F80400242804D080
:102DB000012D05D0022D0DD02BE02646012528E05F
:102DC0000D2826D108EB040040780A2821D1601C88
:102DD0001FFA80F96421684602F052FBA9EB060253
:102DE000521C08EB0601684602F0B1FA6846FFF78C
:102DF00091FFDFF874A04FF020550AF1780A2946B8
:102E0000504600F02DFA0028F9D000250A20FDF7E1
:102E1000DDFE641CA4B2BC42C6D31AB0BDE8F08784
:102E2000FC08002024636D642C6765742C0000008E
:102E300024636D642C7365742C00000024636D643E
:102E40002C7361766500000024636D642C657261EB
:102E50007365000024636D642C646174615F757038
:102E60006C6F61642C00000040640240D0ED030AE6
:102E700091ED031AD1ED041A80EE810AD1ED000A1A
:102E800090ED041A70EE600A81EE210A91ED011AAC
:102E9000D1ED051A30EE410A90ED051A81EE212A96
:102EA00091ED021AD1ED061A61EEA01A32EE411A26
:102EB00091ED072A42EE001A91ED082A42EE011A1E
:102EC000C0ED031AD1ED091A91ED0A2A61EEA01A9C
:102ED00042EE001A91ED0B2A42EE011AC0ED041ADF
:102EE000D1ED0C1A61EEA00AD1ED0D1A41EE800A67
:102EF00091ED0E0A40EE010AC0ED050AD0ED000A80
:102F000091ED121AD1ED131A80EE810AD1ED0F0A5C
:102F100030EE600AD0ED010A80EEA11AD1ED100A60
:102F2000D1ED141A31EE601AD0ED020A80EEA12A1A
:102F3000D1ED110AD1ED151A61EE801A72EE600A18
:102F400091ED162A42EE011A91ED172A42EE201A4F
:102F5000C0ED001AD1ED181A91ED192A61EE801A10
:102F600042EE011A91ED1A2A42EE201AC0ED011A22
:102F7000D1ED1B1A21EE800AD1ED1C1A01EE810A57
:102F800091ED1D1A01EE200A80ED020A7047000043
:102F90002749084327490860704770B50F21C47856
:102FA000027801234FF0E026E4B1224C246804F4B7
:102FB000E064C4F5E064C4F30724C4F10405E1400F
:102FC0004478AC4085780D4025431B4C29011155B0
:102FD000007800F01F018B40400906EB8000C0F82C
:102FE000003170BD02F01F008340500906EB8000E5
:102FF000C0F8803170BD114A114001430D48001FD7
:10300000016070470B4A121D0029116801D001436D
:1030100000E08143116070474FF0E0210428086907
:1030200003D020F004000861704740F00400FAE784
:103030000000FA050CED00E000E400E080FFFF1F57
:103040002DE9F043016821F00101016000210160D8
:1030500041608160C160016121214161BA49BA4A80
:103060003D251039904202D18D60BDE8F083B64A0B
:103070004FF474661832904201D18E60F5E7B24A7F
:103080004FF474173032904201D18F60EDE7AE4AB1
:103090004FF0746C4832904202D1C1F808C0E4E7A6
:1030A000A94BAA4A6033984201D1CA60DDE7A64C19
:1030B000A74B7834A04201D1CB60D6E7DFF88882F5
:1030C000A44C08F19008404501D1CC60CDE7DFF871
:1030D00078824FF03D5908F1A808404502D1C1F867
:1030E0000C90C2E79C49DFF870820839404501D155
:1030F0000D60BAE7984D1835A84201D10E60B4E7CB
:10310000954D3035A84201D10F60AEE7924D48355C
:10311000A84202D1C1F800C0A7E78F4D8E496035A3
:10312000091FA84201D10A609FE78B4A783290427A
:1031300001D10B6099E7884A9032904201D10C602E
:1031400093E7854AA83290428FD1C1F800908CE76E
:1031500030B50368814ACC6813400A682243D1E93C
:1031600005452C432243CC6922430C6A22434C6A16
:1031700022438C6A22434C6B22438C6B22431A43BA
:103180000260426922F00703D1E90B2422431A436B
:1031900042610A6942604A6882608968C16030BDE4
:1031A0000021016041608160C16001614161816114
:1031B000C161016241628162C162016341638163F5
:1031C00070470029016802D041F0010101E021F0BF
:1031D0000101016070470029016802D041F40041FB
:1031E00001E021F40041016070470029016802D02C
:1031F00041F0200101E021F02001016070474160B1
:103200007047406880B27047002A026802D042F4DA
:10321000002201E022F400220260016170470029CF
:10322000016802D041F4802101E021F48021016095
:1032300070470AB101617047C160704701460020C4
:103240000968090300D5012070470146002009687C
:10325000C90700D001207047406900F0380070476E
:1032600002463D4B00209A4202D2374A103A01E012
:10327000394A103A8B0001D5526800E01268384B89
:103280001A400A4200D001207047334A904202D2CD
:103290002D48103801E030481038314A8B0001EADF
:1032A000020101D5C16070478160704710B50C06FE
:1032B00001F01E0304D54AB1446944F0800444611E
:1032C00080290CD042B10168194307E0426922F01D
:1032D00080024261802902D001689943016010BDDB
:1032E00030B51D4A0024904202D2174B103B01E03A
:1032F000194B103B1B4A114205D01E2202EAD12570
:1033000002682A4002E0406900F08002880001D58E
:10331000586800E01868124B1840084201D002B10A
:103320000124204630BD0C4A904202D20648103893
:1033300001E0094810380A4A8B0001EA020101D570
:10334000C160704781607047106002403D000020FE
:10335000400F002000003D20106402403F801CF020
:103360007D0F7D0F3C0F3C0F354900200860091D83
:103370000860091D0860091D086031493148143191
:103380000860704730B52E498379026853B30B68E3
:1033900093430B600A1D13680468A343136002790A
:1033A0000A441368046823431360254A08321368EB
:1033B0000468A3431360131D1C680568AC431C60BC
:1033C0004479102C05D021440A68006802430A6041
:1033D00030BD116804682143116019680068014319
:1033E000196030BD0079084401689143016030BD27
:1033F0000021016001710C224271817170471049F6
:1034000010310A6802430A60704701460C4A0020E6
:10341000143212680A4200D0012070470849143162
:10342000086070470146064A0020143212680A42BA
:1034300000D0012070470249143108607047000035
:10344000003C0140FFFF7F00F94908707047F849D0
:103450000028086802D040F4807001E020F48070F9
:1034600008607047F2490028086802D040F40070F4
:1034700001E020F4007008607047ED4900280868FA
:1034800002D040F4806001E020F480600860704762
:10349000E748016841F4006101607047E448016851
:1034A00041F4805101607047E14810300068002805
:1034B00005DADF48DF49001D0160DF490160704720
:1034C000DB481030016841F0004101607047D84985
:1034D00009200C310A68D20301D5012070470A681F
:1034E000D20601D5062070470A68D20501D5022010
:1034F00070470A6812F0E00F01D007207047096892
:103500008907FBD50820704708B509208DF8000011
:10351000FFF7DDFF8DF800009DF800000128F7D0CF
:103520009DF8000008BD70B50646002529B10129A7
:1035300028D0022929D04FF44075FFF7E5FF09286C
:103540001FD1BB4C1034206820F4407020602068EC
:1035500028432060206820F0F8002060206846F0B2
:10356000020108432060206840F480302060FFF7AB
:10357000CBFF216821F002012160216821F0F801D0
:10358000216070BD4FF48075D7E74FF40075D4E724
:1035900030B504460025FFF7B7FF2CB1012C1DD034
:1035A000022C1ED04FF44075092816D1A04C1034BF
:1035B000206820F440702060206828432060206844
:1035C00040F004002060206840F480302060FFF765
:1035D0009BFF216821F00401216030BD4FF480750C
:1035E000E2E74FF40075DFE730B504460025FFF74A
:1035F0008BFF2CB1012C1DD0022C1ED04FF4407536
:10360000092816D18A4C1034206820F440702060BC
:10361000206828432060206840F004002060206873
:1036200040F480302060FFF76FFF216821F0040133
:10363000216030BD4FF48075E2E74FF40075DFE79D
:1036400030B504460025FFF75FFF2CB1012C1DD0DB
:10365000022C1ED04FF44075092816D1744C10343A
:10366000206820F440702060206828432060206893
:1036700040F400402060206840F480302060FFF774
:1036800043FF216821F40041216030BD4FF4807573
:10369000E2E74FF40075DFE7F0B515461E46074632
:1036A000FFF732FF092815D1614C1034206820F44F
:1036B00040702060206840F440702060206840F036
:1036C000010020603D607E60FFF71EFF216821F051
:1036D00001012160F0BD70B50D460646FFF714FFED
:1036E000092814D1524C1034206820F44070206016
:1036F000206840F400702060206840F001002060E5
:103700003560FFF701FF216821F00101216070BDE4
:1037100070B50D460646FFF7F7FE092814D1444C54
:103720001034206820F440702060206840F48070DD
:103730002060206840F0010020603580FFF7E4FE43
:10374000216821F00101216070BD70B50D4606466B
:10375000FFF7DAFE092812D1354C1034206820F426
:103760004070206020682060206840F001002060E8
:103770003570FFF7C9FE216821F00101216070BD9D
:103780002B4814300068C00705D029482B49083061
:1037900001602B490160704725481430016841F0F1
:1037A00001010160704730B50D460446FFF7ACFEDD
:1037B000092807D11E48163001880DB1A14300E049
:1037C0002143018030BD30B50D460446FFF79CFE15
:1037D000092807D116481A3001880DB1A14300E02D
:1037E0002143018030BD124A1732117801F07F0168
:1037F00008431070704730B50D460446FFF784FE4D
:10380000092807D10A48163001880DB1214300E08C
:10381000A143018030BD30B50D460446FFF774FE6C
:10382000092811D102481A3001885DB121430AE00C
:10383000003C024023016745AB89EFCD3B2A1908C4
:103840007F6E5D4CA143018030BD10B50446FFF78B
:103850005BFE092801D13548047010BD70B51546CE
:103860000C460646FFF750FE092808D12F49491E8D
:10387000087800F00F0004432C4334430C7070BDF3
:103880002A49491E0A7822F010020A700A78024377
:103890000A7070472549491E0A7822F00C020A7006
:1038A0000A7802430A7070472048401E017841F0B0
:1038B0000201017028E61D48401E0068C0F3471051
:1038C00070471A48401C008870471848401D0088FF
:1038D00070471648401C008870471448401D0088F7
:1038E0007047124900200978AA2900D001207047AA
:1038F0000E48401E007800F00C0070470B4A521F23
:103900000029116801D0014300E081431160704734
:103910000146064A0020093A12680A4200D00120F6
:10392000704702490939086070470000153C0240A1
:10393000824910B5884206D10121084600F089FA73
:10394000002101205BE07E49884206D1012102204E
:1039500000F07FFA0021022051E07A49884206D126
:103960000121042000F075FA0021042047E0764987
:10397000884206D10121082000F06BFA00210820BE
:103980003DE07249884206D10121102000F061FA21
:103990000021102033E06E49884206D10121202009
:1039A00000F057FA0021202029E06A49884206D118
:1039B0000121402000F04DFA002140201FE066491F
:1039C000884206D10121802000F043FA00218020A6
:1039D00015E06249884202D1012184150AE060495C
:1039E000884202D10121441504E05E4988420AD18F
:1039F00001210415204600F02CFA00212046BDE8E4
:103A0000104000F026BA10BDF0B5002301240327B2
:103A10000D6804FA03F21540954242D1D0F800C077
:103A20005E0007FA06F52CEA050CC0F800C091F814
:103A300004C0D0F800E00CFA06FC4CEA0E0CC0F80A
:103A400000C091F804C0BCF1010F02D0BCF1020F1C
:103A50001FD1D0F808C02CEA050CC0F808C091F8B6
:103A600005C0D0F808E00CFA06FC4CEA0E0CC0F8D1
:103A700008C0D0F804C02CEA020CC0F804C04268A8
:103A800091F806C00CFA03FC1FFA8CFC42EA0C0207
:103A90004260C268AA43C260CA79C568B2402A437C
:103AA000C2605B1C102BB3D3F0BD4FF6FF710160F9
:103AB0000021017141718171C171704708B541F4F4
:103AC00080320092C261C1610099C161C169C0695F
:103AD000009008BD0246002012690A4200D0012071
:103AE0007047006980B270470246002052690A425E
:103AF00000D001207047406980B270470183704751
:103B0000418370470AB10183704741837047416127
:103B1000704742694A40426170474B07DB0E9A404A
:103B2000C90810B500EB8100016A0F249C40A14335
:103B30000162016A1143016210BD000000000240F1
:103B40000004024000080240000C02400010024045
:103B50000014024000180240001C024000200240F5
:103B60000024024000280240F748016841F00101AA
:103B70000160F54A0021083211600268F34B1A40D7
:103B80000260031DF24A1A60EF4BF24A84331A6056
:103B9000026822F480220260EB480C300160EA489F
:103BA0008C3001607047E8490022891C0A70087057
:103BB000704702460020510901290CD002290CD07F
:103BC000E1497431096802F01F02012393400B425E
:103BD00000D001207047DC49F4E7DB497031F1E7A0
:103BE00018B500204FF4A04400903120FFF7E1FF0A
:103BF0000099491C0091A14201D00028F5D0312044
:103C0000FFF7D7FF002800D0012018BDCE490A6871
:103C100022F0F80242EAC00008607047CE4908600E
:103C20007047C949002270310A700A70012802D019
:103C3000042801D1052008707047C8490860704702
:103C400041EA82115A0810B5C54B029C03EB0242AF
:103C50001143014341EA0460BB49091D086010BDDE
:103C6000BD4908667047800140EA0170B649843159
:103C700008607047B84988667047800140EA016073
:103C8000B14940EA0270883108607047B24908675C
:103C90007047B149C8647047AB4A0832136808439B
:103CA00023F0EC63184310607047A74A083213688A
:103CB000084323F07843184310607047A24A083243
:103CC000116821F003010143116070479E480830DC
:103CD000006800F00C0070479B4A0832116821F020
:103CE000F001014311607047974A0832116821F4CE
:103CF000E051014311607047934908310A6822F48A
:103D0000604242EAC000086070478F4A30B508320E
:103D10001168944B11F00C0103D0042901D008293B
:103D200001D0036015E08849091D0C68C4F3805573
:103D30000C6804F03F04B3FBF4F30C680968C4F3A7
:103D400088146343C1F30141491C4900B3FBF1F1FD
:103D5000016011680F2303EA1111834B5C5C016859
:103D6000E14041601468072505EA94241C5D21FAAE
:103D700004F48460126805EA52329A5CD140C16052
:103D800030BDC0F30121032908D16F4A0832116800
:103D900021F4F81375490140194311606A497031E3
:103DA0000A68C0F30B0002430A6070476B4944394C
:103DB0000860704769494039086070476C4908607D
:103DC0007047614A8C321168401E21F01F01014387
:103DD000116070475C498C310A686FF0FF0322F470
:103DE000F85203EB0020104308607047564A8C32AB
:103DF000116821F440310143116070475D4908604A
:103E00007047514A30320029116801D0014300E067
:103E10008143116070474C4A34320029116801D047
:103E2000014300E0814311607047474A4032002956
:103E3000116801D0014300E0814311607047424A9C
:103E400044320029116801D0014300E08143116030
:103E500070473D4A10320029116801D0014300E04B
:103E6000814311607047384A14320029116801D02B
:103E7000014300E0814311607047334A203200293A
:103E8000116801D0014300E08143116070472E4A60
:103E900024320029116801D0014300E08143116000
:103EA0007047294A50320029116801D0014300E0CF
:103EB000814311607047244A54320029116801D0AF
:103EC000014300E08143116070471F4A60320029BE
:103ED000116801D0014300E08143116070471A4A24
:103EE00064320029116801D0014300E08143116070
:103EF0007047154970310128086803D020F0080088
:103F00000860704740F00800FAE70F4A0D320029B8
:103F1000117801D0014300E08143117070470A48D5
:103F20007430016841F08071016070470146064AB3
:103F300000200C3212680A4200D00120704702496A
:103F40000E3108707047000000380240FFFFF6EAAB
:103F5000103000240030002000004742800E47420D
:103F60000000FFFF0024F40050000020FFFCFF0FC2
:103F70005C014742E0114742C04910B5884202D176
:103F80000121841424E0BE49884202D10121041495
:103F900004E0BC4988420AD10121C4132046FFF73E
:103FA0006CFF2046BDE810400021FFF766BFB64910
:103FB000884202D1012144140AE0B449884202D166
:103FC00001210C0504E0B24988420AD101214C05C7
:103FD0002046FFF75CFF2046BDE810400021FFF7B8
:103FE00056BF10BD30B502884C8802F441530A8890
:103FF000CD8822438C882C4322430C8922434C8950
:1040000022438C892243CC8922431A430280828B2B
:1040100022F400628283098A018230BDF0B5022257
:104020000023858B01244FF24006354085830284AE
:10403000858B8E68022E40D08A8802B10224954A70
:1040400013681B0203D5136823F400031360914A1D
:104050007C3213681268C3F388168E4FC2F3027362
:104060003F1F3A683F6802F03F024FEA472C8A4FF1
:10407000B7FBF2F27243B2FBF3F2CB88B3F5007FE9
:104080002BD06301B2FBF3F202EB82028B68520089
:10409000B2FBF3F2521D92B20A23B2FBF3F202F02A
:1040A0000103D21A4FF6FF74C2F34F0204EA03234E
:1040B000941EFE2C01D302220023CC881A43144301
:1040C00004840A884B881A438B8889890B431A43D6
:1040D0002A4342F400618183F0BD120AD4E7002133
:1040E000018041808180C180018141818181C181C4
:1040F0000721018270470021018041808180C180B9
:1041000002228260818170470029018802D041F03B
:10411000400101E021F04001018070470029818BBE
:1041200002D041F4806101E021F480618183704715
:10413000028822F40062028002880A4302807047EB
:10414000B1F5804F018803D021F480410180704790
:1041500041F48041FAE7A1F57E420188FF3A02D09E
:1041600041F4807101E021F48071018070470029E1
:10417000818802D041F0040101E021F00401818036
:1041800070470029818802D041F0100101E021F040
:1041900010018180704730B5838B00224FF24004BC
:1041A0002340838302230384848B0B884FF4807520
:1041B000B3F5007F00D003B92A464B888D888989E2
:1041C0002B4311430B43234343F40061818330BDF0
:1041D00080897047818170470029018802D041F4AD
:1041E000005101E021F4005101807047018841F441
:1041F000805101807047012901D0008B7047808A6F
:104200007047008A7047002A828801D00A4300E084
:104210008A4382807047090901238B40002A8288E3
:1042200099B201D00A4300E08A4382807047024677
:10423000002012890A4200D001207047C943018141
:10424000704710B501F00F040122034602FA04F48E
:10425000002009098A4091B29A88A4B20A401989BB
:10426000214202D0002A00D0012010BD01F00F022F
:1042700001219140C9430181704700000030014095
:1042800000380040003C0040003401400050014034
:1042900000540140083802400024F40010B5012108
:1042A0008C032046FFF7F3FD2046BDE810400021B7
:1042B000FFF7EDBD13490860704713490862704766
:1042C00010B58A07130F21F003040F220D499A40FD
:1042D000083121440C6894430C600A6898400243FA
:1042E0000A6010BD0849DC31086070470749086062
:1042F00070470449002020310968C90500D5012014
:1043000070470000003801400000274200042742A7
:10431000FE4910B5884206D101210846FFF7B7FDD6
:10432000002101205BE0B0F1804F09D0F8498842BC
:104330000DD101210220FFF7A0FD0021022070E035
:1043400001210846FFF799FD0021012069E0F149AC
:10435000884206D101210420FFF78FFD00210420AF
:104360005FE0ED49884206D101210820FFF785FD75
:104370000021082055E0E949884206D1012110209A
:10438000FFF77BFD002110204BE0E549884206D174
:1043900001212020FFF771FD0021202041E0E149AB
:1043A000884206D101210220FFF771FD0021022081
:1043B00015E0DD49884202D101210C040AE0DB4905
:1043C000884202D101214C0404E0D94988420AD133
:1043D00001218C042046FFF75AFD00212046BDE84C
:1043E0001040FFF754BDD349884206D10121402037
:1043F000FFF743FD0021402013E0CF49884206D15A
:1044000001218020FFF739FD0021802009E0CB4900
:1044100088420AD1841501212046FFF72EFD002194
:104420002046BDE81040FFF728BD10BD30B502881A
:10443000B64BBC4C98420DD0A0420BD0B0F1804F8F
:1044400008D0B34DA84205D0B24DA84202D0B24D1B
:10445000A84203D122F070054A882A43AF4DA842F2
:1044600006D0AF4DA84203D022F440750A892A43F2
:1044700002804A68C2620A880285984201D0A0423E
:1044800001D1897A01860121818230BD4FF0FF314F
:104490004160002101800181418081727047018566
:1044A00082827047028822F070020A4302807047BD
:1044B00041627047C1627047406A7047008D704723
:1044C0000029018802D041F0020101E021F002013F
:1044D000018070470029018802D041F0040101E009
:1044E00021F00401018070470029018802D041F0C9
:1044F000800101E021F0800101807047028822F0F4
:104500000802028002880A4302807047028822F46F
:104510004072028002880A430280704700290188A5
:1045200002D041F0010101E021F00101018070475A
:1045300030B5028C22F001020284028C8388048B45
:1045400022F0020224F073050C882C438D89154358
:104550004A882A436D4DA84202D0724DA8420DD11F
:1045600022F00805CA8923F440732A4322F0040587
:104570008A882A430D8A1D434B8A2B4383800483F8
:1045800089684163028430BD70B5028C22F010024C
:104590000284028C8488038B0D8823F4E6464FF650
:1045A000FF7303EA052535438E8922F0200203EAD2
:1045B000061616434A8803EA02123243534EB042AB
:1045C00002D0584EB04215D122F08006CA8924F498
:1045D000406403EA0212324322F040068A8803EA6A
:1045E000021232430E8A03EA860626434C8A03EA05
:1045F000840434438480058389688163028470BDA8
:1046000070B5028C22F480720284028C8488838BC1
:104610000D8823F073031D4322F400738E894FF637
:10462000FF7202EA06261E434B8802EA0323334345
:10463000364EB04202D03B4EB04215D123F4006654
:10464000CB8924F4405402EA0323334323F48066E5
:104650008B8802EA032333430E8A02EA06162643B6
:104660004C8A02EA04143443848085838968C163D8
:10467000038470BD70B5028C22F480520284048CD5
:104680008288838B0D8823F4E6464FF6FF7303EA96
:104690000525354324F400568C8903EA0434344359
:1046A0004E8803EA06362643184CA04202D01D4C21
:1046B000A04205D122F480440A8A03EA82122243EE
:1046C0008280858389680164068470BD0021018031
:1046D0004180818081608181C181018241827047F6
:1046E00030B50124058C00F118038C40A5430584E6
:1046F00031B308292CD0091FC1F34E0018440168BA
:1047000048F6FF731940016001681AE0000001409B
:104710000004004000080040000C00400010004071
:1047200000140040000401400040014000440140EA
:104730000048014000180040001C004000200040DC
:1047400006E04FF6FF7303EA02221143016030BD19
:1047500003EB510001684FF68F7319400160016847
:10476000F3E74163704781637047C1637047016439
:104770007047028B22F070020A4302837047028B5B
:104780004FF6FF7322F4E04203EA01211143018353
:104790007047828B22F070020A4382837047828BBB
:1047A0004FF6FF7322F4E04203EA012111438183B3
:1047B0007047028B22F008020A4302837047028B83
:1047C0004FF6FF7322F4006203EA012111430183D3
:1047D0007047828B22F008020A4382837047828BE3
:1047E0004FF6FF7322F4006203EA01211143818333
:1047F0007047028B22F004020A4302837047028B47
:104800004FF6FF7322F4806203EA01211143018312
:104810007047828B22F004020A4382837047828BA6
:104820004FF6FF7322F4806203EA01211143818372
:104830007047028B22F080020A4302837047028B8A
:104840004FF6FF73C2F30E0203EA01211143018305
:104850007047828B22F080020A4382837047828BEA
:104860004FF6FF73C2F30E0203EA01211143818365
:104870007047028C22F002020A4302847047028CC5
:1048800022F008020A4302847047028C4FF6FF733D
:1048900022F0200203EA0111114301847047028CC7
:1048A0004FF6FF7322F0800203EA011111430184E5
:1048B0007047028C4FF6FF7322F4007203EA012165
:1048C000114301847047028C4FF6FF7322F400629B
:1048D00003EA0121114301847047028C4FF6FF73F4
:1048E00022F4005203EA013111430184704710B5EC
:1048F0000123048C8B409C430484038C8A40134323
:10490000038410BD10B50423048C8B409C430484A5
:10491000038C8A401343038410BD828B22F44062CF
:104920008283828B4FF6FF7303EA01210A4382835D
:104930007047828B22F00C028283828B0A4382832F
:104940007047028B22F440620283028B4FF6FF73A2
:1049500003EA01210A4302837047F0B5048C24F076
:1049600010040484078B068C4FF6FF7404EA0115CB
:1049700027F4734704EA0331394304EA02220A4365
:1049800026F0A001294341F0100102830184F0BD0B
:10499000028B22F00C020283028B0A4302837047CF
:1049A0002DE9F0410D460E884988AA882B890446D6
:1049B0000EB3042E26D0082E268C4FF6FF7028D07A
:1049C00026F480562684A78B268C00EA022200EA71
:1049D000013127F473473A4300EA0330104326F4C9
:1049E00020420A4342F48051A0832184E988204672
:1049F000BDE8F04191E700F062F9E9882046BDE8A2
:104A0000F041C5E7FFF7A9FFE9882046BDE8F0417E
:104A100097E726F480762684A78B268C00EA01216E
:104A200000EA0310104327F0F307384326F420620E
:104A30000A4342F48071A0832184E9882046BDE8BE
:104A4000F04176E700210180418001228280C1800F
:104A5000018170472DE9F0410C4600264988074640
:104A6000012501B90226A288012A00D10225208849
:104A700023890028384610D0FFF76FFFE1883846B9
:104A8000FFF75FFF23892A463146384600F017F9C1
:104A9000E1883846BDE8F0417AE700F010F9E18896
:104AA0003846FFF775FF23892A4631463846FFF717
:104AB00054FFE1883846BDE8F04142E7406B70475B
:104AC000806B7047C06B7047006C704710B50A88E8
:104AD0004B88CC881A438B8823431A430B891A438B
:104AE0004B8989891A430A43A0F8442010BD00214C
:104AF000018041808180C180018141818181704735
:104B0000002930F8441F02D041F4004101E0C1F314
:104B10000E01018070470029818802D041F0040114
:104B200001E021F00401818070470029818802D0D2
:104B300041F0010101E021F0010181807047002A6C
:104B4000828901D00A4300E08A43828170478182D2
:104B5000704702460020128A0A4200D001207047A6
:104B6000C9430182704702460020138A92890B4292
:104B700002EA010202D0002A00D001207047C94396
:104B8000018270471143A0F848107047002A8289BB
:104B900001D00A4300E08A4382817047002981885E
:104BA00002D041F0080101E021F008018180704746
:104BB000018921F0070101817047028922F070020A
:104BC0000A430281704700B50346FFF7F6FF1889D4
:104BD00040F00700188100BD70B516460D466029EB
:104BE00004464FF0010231460AD000F068F8294629
:104BF0002046FFF7E2FF208940F00700208170BDCA
:104C0000FFF7ABFEF3E730B504894FF6FF7505EA11
:104C100003231343E4B20B432343038130BD10B598
:104C20000446FFF7F0FF208940F07700208110BD97
:104C300010B50446FFF7E7FF208940F4804020814B
:104C400010BD828822F07002828082880A438280AE
:104C50007047028922F00702028102890A43028119
:104C60007047028922F08002028102890A43028190
:104C7000704770B50589048B068C25F007050D4338
:104C80004FF6FC410C4040F201110C434FF6FF710E
:104C900001EA031126F02206114331430581048302
:104CA000018470BD0029818802D041F0800101E0BB
:104CB00021F0800181807047A0F85010704770B5D6
:104CC000048C24F001040484058B048C4FF6FF76D9
:104CD00006EA0313134325F0F3052B4324F00A02DD
:104CE0000A4342F001010383018470BDD04910B52D
:104CF000884206D101211020FFF7C9F800211020B9
:104D000020E0CC49884202D101214C0429E0CA4963
:104D1000884202D101218C0423E0C849884202D193
:104D20000121CC041DE0C649884202D101210C05B5
:104D300017E0C449884209D101212020FFF7A7F8D4
:104D400000212020BDE81040FFF7A1B8BE498842ED
:104D500002D101218C0704E0BC4988420AD101211B
:104D600044052046FFF789F82046BDE810400021A1
:104D7000FFF783B810BD7FB50446008A0D4620F4C6
:104D80004051E88808432082A08941F20C618843A1
:104D9000A9882A8911436A8902431143A181A08A03
:104DA00020F44071A8890843A0826846FEF7ADFF51
:104DB0009F48844202D0A348844201D1039800E076
:104DC0000298A1890904002900EBC00101EB001041
:104DD000296802DA4FEA410101E04FEA8101B0FBA4
:104DE000F1F26420B2FBF0F14FEA01114FEA111326
:104DF0006FF018056B4302EB8302A3891D044FF08B
:104E0000320306D503EBC202B2FBF0F000F007005C
:104E100005E003EB0212B2FBF0F000F00F000843D4
:104E200020817FBD4FF41651016000218180C18037
:104E300001810C2242818181704710B5028A4C8821
:104E400022F470630A8822438C88C9880C43224369
:104E50001A43028210BD0021018041808180C180FF
:104E600070470029818902D041F4005101E021F40A
:104E7000005181817047028B02F47F420283028BD2
:104E80000A43028370470029818902D041F400411E
:104E900001E0C1F30E01818170470029818A02D0AF
:104EA00041F4006101E021F4006181827047C1F3A7
:104EB0000801818070478088C0F308007047028A2B
:104EC00022F00F020282028A0A43028270470029FE
:104ED000818902D041F0020101E021F002018181CB
:104EE0007047828922F40062828182890A4382812A
:104EF0007047028A22F020020282028A0A4302825A
:104F000070470029018A02D041F4804101E021F478
:104F1000804101827047818941F0010181817047A0
:104F20000029818A02D041F0080101E021F0080146
:104F300081827047028BD2B20283028B42EA012146
:104F4000018370470029818A02D041F0200101E0ED
:104F500021F02001818270470029818A02D041F02E
:104F6000100101E021F0100181827047828A22F055
:104F700004028282828A0A43828270470029818ADF
:104F800002D041F0020101E021F00201818270476C
:104F9000002A828A01D00A4300E08A438282704755
:104FA00010B5C1F3421301F01F040121A140012BF0
:104FB00007D0022B07D01430002A026805D00A431C
:104FC00004E00C30F8E71030F6E78A43026010BDC9
:104FD0000246002012880A4200D001207047C943CF
:104FE0000180704730B501F01F0201240025C1F394
:104FF000421304FA02F2012B0FD0022B0FD0838A46
:105000004FEA11210088134204FA01F400EA040077
:1050100001D000B10125284630BD8389F0E7038A1D
:10502000EEE70A0A01219140C94301807047000060
:10503000001001400044004000480040004C004087
:10504000005000400014014000780040007C004007
:10505000514810B5016841F4700101604F48016882
:1050600041F0010101604D4A0021083211600268DF
:105070004B4B1A400260031D4A4A1A60026822F430
:105080008022026045480C30016000F035F842494A
:105090004FF000608039086010BD30B53F4C0834D7
:1050A0002068414A10F00C01404803D0042901D087
:1050B000082901D0026015E03849091D0B68C3F3C7
:1050C00080550B6803F03F03B2FBF3F20B680968ED
:1050D000C3F388135A43C1F30141491C4900B2FB91
:1050E000F1F101602168314AC1F30311121D515CD5
:1050F0000268CA40026030BD0CB50020274901900B
:1051000000900A6842F480320A604FF4A0430A68B3
:1051100002F400320092019A521C0192009A12B9D4
:10512000019A9A42F3D10A68920332D50120009085
:105130001A484030026842F0805202601C480268FF
:1051400042F440420260154808300268026002687A
:105150000260026842F480520260031F154A1A601E
:105160000A6842F080720A600A689201FCD5124A0D
:1051700040F202711160016821F0030101600168D1
:1051800041F0020101600168C1F381010229FAD1F5
:105190000CBD00900CBD000088ED00E0003802401E
:1051A000FFFFF6FE103000240024F4006000002011
:1051B0000070004010544107003C02400FB41CB581
:1051C000084B06AA7B4469460090059800F0A3FBB3
:1051D00004460020694600F0B1FB20461CBC5DF887
:1051E00014FB0000750700002DE9F0474FF0000A9E
:1051F00089460446C0F820A02046E1688847002878
:1052000076D0252806D0D4E901219047206A401C99
:105210002062F1E7E168204600258847C4F81CA019
:1052200006460027C4F818A02A2E09D0304601F0FF
:1052300049FF38B304EB8708303EC8F8186019E01E
:1052400059F8041B204604EB87029161E168884706
:10525000012F064618D1E069002820DA25F0200544
:105260001DE0D8F8180000EB800006EB4000303855
:10527000C8F818002046E1688847064601F022FF7A
:105280000028EED1012F0AD02E2E08D12046E16849
:1052900088477F1C0646022F45F02005C4DBA06925
:1052A000002803DA404245F00105A061E80701D07B
:1052B00025F01005B6B1A6F14100192802D8203614
:1052C00045F400654A463146204625604D46FAF7CA
:1052D0009BFF58B1012806D0ED1D25F0070000F115
:1052E000080989E704E005F1040985E730468AE703
:1052F000206ABDE8F08740EA010310B59B070FD193
:10530000042A0DD310C808C9121F9C42F8D020BA35
:1053100019BA884201D9012010BD4FF0FF3010BDED
:105320001AB1D30703D0521C07E0002010BD10F8BB
:10533000013B11F8014B1B1B07D110F8013B11F881
:10534000014B1B1B01D1921EF1D1184610BD032A3F
:1053500040F2308010F0030C00F0158011F8013B92
:10536000BCF1020F624498BF11F801CB00F8013B79
:1053700038BF11F8013BA2F1040298BF00F801CB3D
:1053800038BF00F8013B11F0030300F02580083A14
:10539000C0F0088051F8043B083A51F804CBA0E86B
:1053A0000810F5E7121D5CBF51F8043B40F8043BC0
:1053B000AFF30080D20724BF11F8013B11F801CBF5
:1053C00048BF11F8012B24BF00F8013B00F801CBC6
:1053D00048BF00F8012B704710B5203AC0F00B8091
:1053E000B1E81850203AA0E81850B1E81850A0E8E9
:1053F0001850BFF4F5AF5FEA027C24BFB1E8185043
:10540000A0E8185044BF18C918C0BDE810405FEAB2
:10541000827C24BF51F8043B40F8043B08BF70472E
:10542000D20728BF31F8023B48BF11F8012B28BF33
:1054300020F8023B48BF00F8012B70474FF00002F4
:105440000429C0F0128010F0030C00F01B80CCF196
:10545000040CBCF1020F18BF00F8012BA8BF20F804
:10546000022BA1EB0C0100F00DB85FEAC17C24BF58
:1054700000F8012B00F8012B48BF00F8012B704702
:105480004FF0000200B5134694469646203922BFDD
:10549000A0E80C50A0E80C50B1F12001BFF4F7AF28
:1054A000090728BFA0E80C5048BF0CC05DF804EB0A
:1054B000890028BF40F8042B08BF704748BF20F878
:1054C000022B11F0804F18BF00F8012B7047704776
:1054D0007047704710B500F08BFA006810BD10B52A
:1054E000044600F085FA046010BD70472DE9FF4FB7
:1054F0000C461E464FF0FF378BB0D2E90001DDF8B5
:1055000060800A908A46C1F30A5505B93D460021DC
:1055100008464FF00000BAF1000F00F4400005DA31
:1055200000EB80004FF4400101EA50004FEA90592F
:10553000B9F1010F00DDB9460A9850EA4A000ED0D1
:1055400044F61050A5F2FF3545432F14B8F1000F73
:105550001ED07542291E1EDDC9F100021CE0B8F103
:10556000010F4FF0000001D0302103E0F24305E0CD
:105570002154401CB042FBDB304600220021215464
:105580000B99C1F80880C1E900200FB0BDE8F08F89
:10559000BD1B6D1CDEE74A4600DA694206A800F032
:1055A000D9FA06AB07CB03AB07C350460A9901F003
:1055B0005DF88DE80700A0F500501F3800900398B3
:1055C000002D09DD42F21F014A46084403A9039059
:1055D000684601F0E6FA08E0A0F500504A461F3898
:1055E00003A90390684601F004FB8DE8070000045E
:1055F000000C03D04FF0FF30410800E01046B8F136
:10560000000F03D00022009215461FE0751E06D43D
:1056100000F0F2F902F1300262556D1EF8D5B34682
:105620000122084302D000227F1C04E020783028A9
:1056300001D100227F1E002A099787D01DE0112D7D
:1056400007DA00F0D9F9303262556D1C50EA0102D8
:10565000F5D108430FD10021681E05E0235C625C90
:105660006354491C2254401E8142F7DBAB46A81B01
:10567000401E099001E0009848B1002004F80B009A
:105680000B98099AC0F80880C0E9002B7DE7112625
:105690004FF000085AE72DE9F04F88460446D21D26
:1056A00022F0070191B0D1E90001CDE90A0101F032
:1056B000EAFB02460B98C00F01D02D2007E02068BE
:1056C000810701D52B2002E0202101EAC000032A36
:1056D000099001D0072A05DB03464146204600F029
:1056E000D9F90FE12078800601D5E06900E00620B5
:1056F000B8F1650F814606D0B8F1660F18D0B8F141
:10570000670F72D132E00020B9F1110F009001DB78
:10571000112301E009F101030AAA01A90CA8FFF76E
:10572000E5FEDDE90C70002609F10105834648E03D
:1057300001204B4600904FF000470AAA01A90CA88F
:10574000FFF7D4FEDDE90DB00C995D46002618B9CF
:1057500009F1010001EB0005B9EB050003D4C0F12C
:10576000FF3609F10105A5EB09002BE0B9F1010FA6
:1057700001DA4FF001090020B9F1110F00904846FD
:1057800001DD112300E003460AAA01A90CA8FFF7D6
:10579000ADFEDDE90C704D460026834620780007FB
:1057A0000AD4AB4500DA5D4601A8012D04DD41199C
:1057B00011F8011C302907D04F4502DA17F1040F08
:1057C00004DA0120824610E06D1EEEE7002F02DCB5
:1057D000ED1B3E4403E0781CA84200DD0546A7EB24
:1057E000060000F1010A4FF000472078000703D4BB
:1057F000AA4501DB4FF0FF3A0021B7F1004F0DF150
:1058000043088DF8431023D002202B23002F01DA08
:105810007F422D234FF00A0C011EA0F1010000DC95
:105820004FB197FBFCF10CFB11720F4602F13002F5
:1058300008F8012DF0E7A8F101000370218809059F
:1058400001D5452100E06521A0F1010800F8011C07
:1058500009980FA9A1EB080707F1070700B101207C
:1058600000EB050101EBEA70A1693844A1EB0000EF
:10587000A0F10100A0612078C00602D42046AFF359
:105880000080099830B1D4E901219047206A00F1E5
:10589000010020622078C00620D52046AFF30080AA
:1058A0001CE0002E04DBB34502DD01A8805D00E0B2
:1058B0003020D4E901219047206A761C401CBAF1BF
:1058C000010A20620AD100F08FF8C0680168405CCC
:1058D000D4E901219047206A401C2062281EA5F1CE
:1058E0000105DEDC07E0D4E9012118F8010B90473F
:1058F000206A401C2062381EA7F10107F3DC204615
:10590000AFF30080022011B040E6000001694A1C9C
:1059100002610878704700B58FB0CDE901310021F0
:10592000059105497944CDE9031011466846FFF712
:105930005BFC0FB000BD0000E5FFFFFF0A6802F846
:10594000010B0A60704700000FB4002300B589B056
:105950000CA900910B99CB60204B7B440693204B04
:105960007B44079304236FF00042CDE901321D4AC6
:105970007A446B4608920246002001F0F6FE09B018
:105980005DF814FB70B506464FF0FF3015460C4627
:10599000324686B00091CDE90101694600200490AD
:1059A00004A8FFF7D1FF03460498211825B108B1D8
:1059B0000A4600E022462A6000280DD0002B02DDB6
:1059C0000098884208D03246081B69460094CDE909
:1059D000010404A8FFF7B8FF06B070BDB7010000CE
:1059E000CF0100000F01000000487047B8090020F7
:1059F000004870479809002030B5B0F10A024FEA1C
:105A0000900E71F100034EEA817EB0EB0E0061EB67
:105A100091014FEA101E4EEA017E10EB0E0041EBA1
:105A200011114FEA102E4EEA016E10EB0E0041EB01
:105A300011214FEA104E4EEA014E10EB0E0041EBE1
:105A40001141401841F100014FEAD00040EA417095
:105A50004FEAD10110EB80054FEA810444EA9074CB
:105A600044EB01046D1944EB0404521BA3414FF0B5
:105A7000000348BF0A3200D530BD401C41F100018F
:105A800030BD10B5044600F001F90068005D00F07B
:105A9000010010BD2DE9F0411F46044603260168B0
:105AA000072A01F4006004DB08B116A505E016A57D
:105AB00003E008B115A500E015A521F01000206055
:105AC000A069C01EA0610FB1401EA0612046AFF3C7
:105AD00000804FB1D4E9012138469047206A401C2C
